{
  "transactions": [
    {
      "hash": "0xb10c3d67c69b8d73528a349b6bd45503e4055faf03dc2f55dd4eebbfc23febf6",
      "transactionType": "CREATE2",
      "contractName": "TreasuryManager",
      "contractAddress": "0xebcbe17db2be77c4627e3483ad0d33b0ea37978c",
      "function": null,
      "arguments": [
        "0xbA560d1320983bC9Da64d3A14d0E912A4cE549a6"
      ],
      "transaction": {
        "from": "0xba560d1320983bc9da64d3a14d0e912a4ce549a6",
        "to": "0x4e59b44847b379578588920ca78fbf26c0b4956c",
        "gas": "0x52530a",
        "value": "0x0",
        "input": "0x545245415355525900000000000000000000000000000000000000000000000060806040523480156200001157600080fd5b50604051620041db380380620041db8339810160408190526200003491620000ea565b806001600160a01b0381166200006457604051631e4fbdf760e01b81526000600482015260240160405180910390fd5b6200006f816200007c565b505060016002556200011c565b600180546001600160a01b031916905562000097816200009a565b50565b600080546001600160a01b038381166001600160a01b0319831681178455604051919092169283917f8be0079c531659141344cd1fd0a4f28419497f9722a3daafe3b4186f6b6457e09190a35050565b600060208284031215620000fd57600080fd5b81516001600160a01b03811681146200011557600080fd5b9392505050565b6140af806200012c6000396000f3fe6080604052600436106102085760003560e01c806370f9b41811610118578063ad0c0c9c116100a0578063ea4d3c9b1161006f578063ea4d3c9b146106b3578063f2fde38b146106d3578063f97c919c146106f3578063fb94279014610713578063fdf218c71461073357600080fd5b8063ad0c0c9c1461061a578063cb0c177214610655578063cb2ef5fe14610675578063e30c39781461069557600080fd5b80638da5cb5b116100e75780638da5cb5b1461056c57806391815a981461058a578063996ac51e146105aa57806399940ece146105da578063aa553826146105fa57600080fd5b806370f9b418146104c0578063715018a6146104f057806378aeea7f1461050557806379ba50971461055757600080fd5b80632a0a7dcb1161019b5780633f175bcc1161016a5780633f175bcc146104085780633fc8cef31461042857806353838cf11461046057806369328dec14610480578063706d870a146104a057600080fd5b80632a0a7dcb1461038957806331ca3448146103a957806335876476146103c9578063392e53cd146103e957600080fd5b8063150ddc34116101d7578063150ddc34146102eb57806317353cc61461031b5780631b31fdea1461034957806322ae649b1461036957600080fd5b80630b3cd84e146102145780630b984995146102645780631036bbe21461028657806314b94de5146102bb57600080fd5b3661020f57005b600080fd5b34801561022057600080fd5b5061024f61022f366004613093565b600f60209081526000928352604080842090915290825290205460ff1681565b60405190151581526020015b60405180910390f35b34801561027057600080fd5b5061028461027f3660046130c3565b610753565b005b34801561029257600080fd5b506102a368056bc75e2d6310000081565b6040516001600160781b03909116815260200161025b565b3480156102c757600080fd5b5061024f6102d63660046130c3565b600b6020526000908152604090205460ff1681565b3480156102f757600080fd5b5061024f6103063660046130c3565b600a6020526000908152604090205460ff1681565b34801561032757600080fd5b5061033b61033636600461312b565b610791565b60405190815260200161025b565b34801561035557600080fd5b50610284610364366004613189565b6109d7565b34801561037557600080fd5b506102846103843660046131fd565b610c06565b34801561039557600080fd5b506102846103a43660046131fd565b610d47565b3480156103b557600080fd5b506102846103c4366004613268565b610e7d565b3480156103d557600080fd5b506102846103e43660046132d8565b610fc3565b3480156103f557600080fd5b50600854600160a01b900460ff1661024f565b34801561041457600080fd5b5061028461042336600461336e565b611101565b34801561043457600080fd5b50600654610448906001600160a01b031681565b6040516001600160a01b03909116815260200161025b565b34801561046c57600080fd5b5061028461047b3660046131fd565b611256565b34801561048c57600080fd5b5061028461049b3660046133e7565b61136c565b3480156104ac57600080fd5b506102846104bb36600461336e565b611405565b3480156104cc57600080fd5b5061024f6104db3660046130c3565b600c6020526000908152604090205460ff1681565b3480156104fc57600080fd5b50610284611551565b34801561051157600080fd5b50610525610520366004613429565b611565565b6040805182516001600160781b039081168252602080850151909116908201529181015115159082015260600161025b565b34801561056357600080fd5b5061028461163e565b34801561057857600080fd5b506000546001600160a01b0316610448565b34801561059657600080fd5b50600854610448906001600160a01b031681565b3480156105b657600080fd5b5061024f6105c5366004613457565b600d6020526000908152604090205460ff1681565b3480156105e657600080fd5b50600754610448906001600160a01b031681565b34801561060657600080fd5b50600954610448906001600160a01b031681565b34801561062657600080fd5b5061024f610635366004613093565b600e60209081526000928352604080842090915290825290205460ff1681565b34801561066157600080fd5b50610284610670366004613268565b61167f565b34801561068157600080fd5b50600454610448906001600160a01b031681565b3480156106a157600080fd5b506001546001600160a01b0316610448565b3480156106bf57600080fd5b50600354610448906001600160a01b031681565b3480156106df57600080fd5b506102846106ee3660046130c3565b611854565b3480156106ff57600080fd5b5061028461070e3660046131fd565b6118c5565b34801561071f57600080fd5b5061028461072e366004613470565b6119fb565b34801561073f57600080fd5b50600554610448906001600160a01b031681565b61075b611b17565b600854600160a01b900460ff16610785576040516321c4e35760e21b815260040160405180910390fd5b61078e81611b44565b50565b600854600090600160a01b900460ff166107be576040516321c4e35760e21b815260040160405180910390fd5b336000908152600a602052604090205460ff166107ee5760405163015783e960e51b815260040160405180910390fd5b6107f6611b9f565b6007546001600160a01b0316158061081757506008546001600160a01b0316155b1561083557604051631ce929d960e31b815260040160405180910390fd5b610840828686611bc7565b60075460009061085e90879087906001600160a01b03168785611d3a565b600754600854604051636eb1769f60e11b81523060048201526001600160a01b0391821660248201819052939450911691908390839063dd62ed3e90604401602060405180830381865afa1580156108ba573d6000803e3d6000fd5b505050506040513d601f19601f820116820180604052508101906108de91906134e3565b101561090057600854610900906001600160a01b038481169116600019611fc4565b600854604051630ea598cb60e41b8152600481018590526001600160a01b039091169063ea598cb0906024016020604051808303816000875af115801561094b573d6000803e3d6000fd5b505050506040513d601f19601f8201168201806040525081019061096f91906134e3565b935061097c818587612082565b60408051848152602081018690526001600160a01b0387169133917f87ce6240995de6d4336473f6c9e69650a32c86daf61924260082ed30e2642d29910160405180910390a35050506109cf6001600255565b949350505050565b6109df611b17565b600854600160a01b900460ff16610a09576040516321c4e35760e21b815260040160405180910390fd5b8060005b81811015610c005736848483818110610a2857610a286134fc565b60a00291909101915060009050610a4a610a4560208401846130c3565b61217b565b90506000610a61610a4560408501602086016130c3565b9050806001600160a01b0316826001600160a01b031603610a9557604051634e570e4560e01b815260040160405180910390fd5b68056bc75e2d63100000610aaf6060850160408601613527565b6001600160781b03161115610af857610ace6060840160408501613527565b6040516307914b9f60e51b81526001600160781b0390911660048201526024015b60405180910390fd5b68056bc75e2d63100000610b126080850160608601613527565b6001600160781b03161115610b3157610ace6080840160608501613527565b6001600160a01b038083166000908152601060209081526040808320938516835292905281902090840190610b668282613552565b50506001600160a01b038082169083167f9ceec2447d9b8c3f88ade71b3e3f278f653390e8d0ff9d51667d530f9207978d610ba76060870160408801613527565b610bb76080880160608901613527565b610bc760a0890160808a016135e7565b604080516001600160781b03948516815293909216602084015215159082015260600160405180910390a3836001019350505050610a0d565b50505050565b610c0e611b17565b600854600160a01b900460ff16610c38576040516321c4e35760e21b815260040160405180910390fd5b82818114610c5957604051637e26301b60e11b815260040160405180910390fd5b60005b81811015610d3f576000610c90878784818110610c7b57610c7b6134fc565b9050602002016020810190610a4591906130c3565b90506000858584818110610ca657610ca66134fc565b9050602002016020810190610cbb91906135e7565b6001600160a01b0383166000908152600c602052604090205490915060ff16151581151514610d35576001600160a01b0382166000818152600c6020526040808220805460ff191685151590811790915590519092917ff0706afab3886c70e4efb6442b06010327e329eb692f4b6317a43f03ac1915e791a35b5050600101610c5c565b505050505050565b610d4f611b17565b600854600160a01b900460ff16610d79576040516321c4e35760e21b815260040160405180910390fd5b82818114610d9a57604051637e26301b60e11b815260040160405180910390fd5b60005b81811015610d3f576000868683818110610db957610db96134fc565b9050602002016020810190610dce91906130c3565b90506000858584818110610de457610de46134fc565b9050602002016020810190610df991906135e7565b6001600160a01b0383166000908152600a602052604090205490915060ff16151581151514610e73576001600160a01b0382166000818152600a6020526040808220805460ff191685151590811790915590519092917fe4c0229512bf8f95820cb6c77daf50e732d16748510f9339a7ad67f6acc78faa91a35b5050600101610d9d565b600854600160a01b900460ff16610ea7576040516321c4e35760e21b815260040160405180910390fd5b336000908152600a602052604090205460ff16610ed75760405163015783e960e51b815260040160405180910390fd5b610edf611b9f565b610ee8836121a2565b600080808080610f00610efb8980613604565b6122ec565b939850919650945092509050610f2581610f2060a08b0160808c016130c3565b61238e565b610f328787868687611d3a565b50610f3f85858585612479565b60608101516001600160a01b038516337f1183289f4188399ce3e6a71f2326ec133e81dcda2b5deef0b5a4c0f4bc4c955d610f8060a08d0160808e016130c3565b60a0860151604080516001600160a01b039384168152929091166020830152810188905260600160405180910390a45050505050610fbe6001600255565b505050565b610fcb611b17565b600854600160a01b900460ff1615610ff55760405162dc149f60e41b815260040160405180910390fd5b610ffe8661254e565b6110078561254e565b6110108461254e565b6110198361254e565b600380546001600160a01b03199081166001600160a01b03898116919091179092556004805482168884161790556005805482168784161790556006805482168684161790556007805482168584161790556008805490911691831691909117905561108487611b44565b6008805460ff60a01b1916600160a01b179055604080516001600160a01b038681168252858116602083015284811682840152838116606083015291518783169289811692908b16917f2de78ebb0655f324013be92e0ca10fb3d823901ca99cb6f44664949ec3374ab9916080908290030190a450505050505050565b611109611b17565b600854600160a01b900460ff16611133576040516321c4e35760e21b815260040160405180910390fd5b8281811461115457604051637e26301b60e11b815260040160405180910390fd5b60005b8181101561124d576000868683818110611173576111736134fc565b905060200201602081019061118891906130c3565b9050600085858481811061119e5761119e6134fc565b90506020020160208101906111b391906135e7565b60008a8152600e602090815260408083206001600160a01b038716845290915290205490915060ff16151581151514611243576000898152600e602090815260408083206001600160a01b0386168085529252808320805460ff1916851515908117909155905190928c917ff8cf5da5f026ee17fe23dd82371cd8ff65f7677f17082212d842aba4bbb000959190a45b5050600101611157565b50505050505050565b61125e611b17565b600854600160a01b900460ff16611288576040516321c4e35760e21b815260040160405180910390fd5b828181146112a957604051637e26301b60e11b815260040160405180910390fd5b60005b81811015610d3f5760008686838181106112c8576112c86134fc565b90506020020135905060008585848181106112e5576112e56134fc565b90506020020160208101906112fa91906135e7565b6000838152600d602052604090205490915060ff16151581151514611362576000828152600d6020526040808220805460ff19168415159081179091559051909184917fcbb505ed67aeeff8c5aaf23d496bbda7d9cc9ee049b51ba92fba8052bc4173b39190a35b50506001016112ac565b611374611b17565b600854600160a01b900460ff1661139e576040516321c4e35760e21b815260040160405180910390fd5b6113a9838383612082565b806001600160a01b0316836001600160a01b0316336001600160a01b03167f342e7ff505a8a0364cd0dc2ff195c315e43bce86b204846ecd36913e117b109e856040516113f891815260200190565b60405180910390a4505050565b61140d611b17565b600854600160a01b900460ff16611437576040516321c4e35760e21b815260040160405180910390fd5b8281811461145857604051637e26301b60e11b815260040160405180910390fd5b60005b8181101561124d576000868683818110611477576114776134fc565b905060200201602081019061148c91906130c3565b905060008585848181106114a2576114a26134fc565b90506020020160208101906114b791906135e7565b60008a8152600f602090815260408083206001600160a01b038716845290915290205490915060ff16151581151514611547576000898152600f602090815260408083206001600160a01b0386168085529252808320805460ff1916851515908117909155905190928c917f7486286e380836f9537a4f293a06e8427409946200887024b06174a1ca34b97b9190a45b505060010161145b565b611559611b17565b6115636000612575565b565b6040805160608101825260008082526020820181905291810191909152600854600160a01b900460ff166115ac576040516321c4e35760e21b815260040160405180910390fd5b601060006115b98561217b565b6001600160a01b03166001600160a01b0316815260200190815260200160002060006115e48461217b565b6001600160a01b031681526020808201929092526040908101600020815160608101835290546001600160781b038082168352600160781b82041693820193909352600160f01b90920460ff161515908201529392505050565b60015433906001600160a01b031681146116765760405163118cdaa760e01b81526001600160a01b0382166004820152602401610aef565b61078e81612575565b600854600160a01b900460ff166116a9576040516321c4e35760e21b815260040160405180910390fd5b336000908152600a602052604090205460ff166116d95760405163015783e960e51b815260040160405180910390fd5b6116e1611b9f565b6116ea836121a2565b6117046116fd60a08501608086016130c3565b8383611bc7565b60008080808061171c6117178980613604565b61258e565b9450945094509450945060006117318461217b565b6001600160a01b0381166000908152600c602052604090205490915060ff1661176d5760405163ad78af1960e01b815260040160405180910390fd5b611797858561178260608d0160408e0161364a565b61179260808e0160608f0161364a565b612726565b6117a48888878687611d3a565b5060006117c787878787878f60800160208101906117c291906130c3565b612808565b9050846001600160a01b0316866001600160a01b0316336001600160a01b03167f28d00b9419287441aad457025bbaa9aaead77e93e2739080543e5261012b0eee8d608001602081019061181b91906130c3565b604080516001600160a01b039092168252602082018a9052810186905260600160405180910390a450505050505050610fbe6001600255565b61185c611b17565b600180546001600160a01b0383166001600160a01b0319909116811790915561188d6000546001600160a01b031690565b6001600160a01b03167f38d16b8cac22d99fc7c124b9cd0de2d3fa1faef420bfe791d8c362d765e2270060405160405180910390a350565b6118cd611b17565b600854600160a01b900460ff166118f7576040516321c4e35760e21b815260040160405180910390fd5b8281811461191857604051637e26301b60e11b815260040160405180910390fd5b60005b81811015610d3f576000868683818110611937576119376134fc565b905060200201602081019061194c91906130c3565b90506000858584818110611962576119626134fc565b905060200201602081019061197791906135e7565b6001600160a01b0383166000908152600b602052604090205490915060ff161515811515146119f1576001600160a01b0382166000818152600b6020526040808220805460ff191685151590811790915590519092917fec1d5c5535346cdaa2ffc98b7dd33e122f3b517c5ac4047b12c78564faa8ecca91a35b505060010161191b565b600854600160a01b900460ff16611a25576040516321c4e35760e21b815260040160405180910390fd5b336000908152600a602052604090205460ff16611a555760405163015783e960e51b815260040160405180910390fd5b611a5d611b9f565b6001600160a01b0381166000908152600b602052604090205460ff16611a9657604051636f19fa6f60e11b815260040160405180910390fd5b611aa38585858586611d3a565b50611aaf838383612082565b806001600160a01b0316836001600160a01b0316336001600160a01b03167f1288af6a21bcbf8578557e4ee7c0be88a2be953a252ed25850019ea232b1a6bb85604051611afe91815260200190565b60405180910390a4611b106001600255565b5050505050565b6000546001600160a01b031633146115635760405163118cdaa760e01b8152336004820152602401610aef565b611b4d8161254e565b600980546001600160a01b038381166001600160a01b0319831681179093556040519116919082907f058545a3b7316b1fe898725a6ee25af0c11ad1a4c8583780c6f59a6c61456af790600090a35050565b6002805403611bc157604051633ee5aeb560e01b815260040160405180910390fd5b60028055565b6001600160a01b0383166000908152600b602052604090205460ff1615611bed57505050565b6000819003611c0f57604051636f19fa6f60e11b815260040160405180910390fd5b60008282611c1e600182613683565b818110611c2d57611c2d6134fc565b9050602002810190611c3f9190613696565b611c509060408101906020016130c3565b90506001600160a01b038116611c7957604051636f19fa6f60e11b815260040160405180910390fd5b6000816001600160a01b031663186f03546040518163ffffffff1660e01b8152600401602060405180830381865afa925050508015611cd5575060408051601f3d908101601f19168201909252611cd2918101906136c6565b60015b611cf257604051636f19fa6f60e11b815260040160405180910390fd5b90506001600160a01b0381161580611d1c5750806001600160a01b0316856001600160a01b031614155b15611b1057604051636f19fa6f60e11b815260040160405180910390fd5b6000848103611d5c5760405163478bfa6560e01b815260040160405180910390fd5b6000611d67856128c5565b60408051600180825281830190925291925060009190816020015b6060815260200190600190039081611d825790505090508787604051602001611dac929190613870565b60405160208183030381529060405281600081518110611dce57611dce6134fc565b6020908102919091010152604080516001808252818301909252600091816020016020820280368337019050509050611e05612944565b81600081518110611e1857611e186134fc565b6020908102919091010152604080516001808252818301909252600091816020015b6060815260200190600190039081611e3a5790505090506001600160a01b038816611e9c57611e79308860405180602001604052806000815250612957565b81600081518110611e8c57611e8c6134fc565b6020026020010181905250611f06565b60405130602482015260448101889052611ee790899060009060640160408051601f198184030181529190526020810180516001600160e01b031663a9059cbb60e01b179052612957565b81600081518110611efa57611efa6134fc565b60200260200101819052505b60035460405163cef6d20960e01b81526001600160a01b039091169063cef6d20990611f3a90869086908690600401613a0d565b600060405180830381600087803b158015611f5457600080fd5b505af1158015611f68573d6000803e3d6000fd5b5050505083611f76896128c5565b611f809190613683565b945085851080611f8f57508685115b15611fb75760405163251d5f4b60e21b81526004810188905260248101869052604401610aef565b5050505095945050505050565b604080516001600160a01b038416602482015260448082018490528251808303909101815260649091019091526020810180516001600160e01b031663095ea7b360e01b1790526120158482612986565b610c00576040516001600160a01b0384811660248301526000604483015261207891869182169063095ea7b3906064015b604051602081830303815290604052915060e01b6020820180516001600160e01b038381831617835250505050612a2e565b610c008482612a2e565b6001600160a01b038316612115576000816001600160a01b03168360405160006040518083038185875af1925050503d80600081146120dd576040519150601f19603f3d011682016040523d82523d6000602084013e6120e2565b606091505b505090508061210f576040516312988bef60e21b81526001600160a01b0383166004820152602401610aef565b50612129565b6121296001600160a01b0384168284612a91565b806001600160a01b0316836001600160a01b03167f2c42af0ac449800f98313b961b8c9e7d69c3065be5b86449ed4c358e01d3a7808460405161216e91815260200190565b60405180910390a3505050565b6006546000906001600160a01b03838116911614612199578161219c565b60005b92915050565b806020013542106121c657604051630819bdcd60e01b815260040160405180910390fd5b60006121d28280613604565b60208401356121e7606086016040870161364a565b6121f7608087016060880161364a565b61220760a08801608089016130c3565b60405160200161221c96959493929190613a77565b604051602081830303815290604052805190602001209050600061226d827f19457468657265756d205369676e6564204d6573736167653a0a3332000000006000908152601c91909152603c902090565b905060006122bc8261228260a0870187613604565b8080601f016020809104026020016040519081016040528093929190818152602001838380828437600092019190915250612ac292505050565b6009549091506001600160a01b03808316911614610c0057604051626d46e960e31b815260040160405180910390fd5b606060008060606122fb61302b565b6123058787612aec565b9297509095509350915061231882612b6a565b905080608001516001600160a01b0316846001600160a01b031614612350576040516356cf902d60e01b815260040160405180910390fd5b828161010001518260c001516123669190613abe565b1461238457604051632f0e599760e11b815260040160405180910390fd5b9295509295909350565b60608201516000818152600d602052604090205460ff166123c5576040516311da24df60e11b815260048101829052602401610aef565b6000818152600e602090815260408083206001600160a01b038616845290915290205460ff1661241a5760405163cacd7cf360e01b8152600481018290526001600160a01b0383166024820152604401610aef565b6000818152600f6020908152604080832060a08701516001600160a01b0316845290915290205460ff16610fbe5760a08301516040516336aaac6560e01b8152600481018390526001600160a01b039091166024820152604401610aef565b60055460009061249590859085906001600160a01b0316612bbf565b905060006124a2856128c5565b600554604051633ce33bff60e01b81529192506001600160a01b031690633ce33bff9084906124db908a908a908a908a90600401613ad1565b6000604051808303818588803b1580156124f457600080fd5b505af1158015612508573d6000803e3d6000fd5b50505050506000612518866128c5565b6125229083613683565b905084811461124d576040516348676b5960e01b81526004810186905260248101829052604401610aef565b6001600160a01b03811661078e5760405163f6b2911f60e01b815260040160405180910390fd5b600180546001600160a01b031916905561078e81612c70565b60606000808083816125a3600482898b613b17565b6125ac91613b41565b90506001600160e01b03198116635f57552960e01b146125df57604051632033702760e11b815260040160405180910390fd5b60006125ee886004818c613b17565b8080601f01602080910402602001604051908101604052809392919081815260200183838082843760009201919091525050825192935061263b9284016020908101925084019050613c46565b60408051600060208201819052959c50939a50919750955082918291829182910160408051601f198184030181529082905261267b918a90602001613cdd565b60405160208183030381529060405280602001905181019061269d9190613d0c565b98505097505050955095509550508a6001600160a01b0316856001600160a01b0316146126dd576040516356cf902d60e01b815260040160405180910390fd5b801580156126f45750886126f18484613abe565b14155b1561271257604051632f0e599760e11b815260040160405180910390fd5b839950505050505050509295509295909350565b60006127328585611565565b9050806040015161276957604051638976cb9560e01b81526001600160a01b03808716600483015285166024820152604401610aef565b600083600e0b138015612791575080600001516001600160781b0316836001600160781b0316115b156127b757805160405163fe1ba85f60e01b8152610aef91879187918791600401613dca565b600082600e0b1380156127df575080602001516001600160781b0316826001600160781b0316115b15611b10576020810151604051638cffaf9560e01b8152610aef91879187918691600401613dca565b6004546000906001600160a01b031681612823888784612bbf565b90506000612830886128c5565b9050826001600160a01b0316635f575529838c8c8b8b6040518663ffffffff1660e01b81526004016128659493929190613ad1565b6000604051808303818588803b15801561287e57600080fd5b505af1158015612892573d6000803e3d6000fd5b5050505050806128a1896128c5565b6128ab9190613683565b93506128b8888587612082565b5050509695505050505050565b60006001600160a01b0382166128dc575047919050565b6040516370a0823160e01b81523060048201526001600160a01b038316906370a0823190602401602060405180830381865afa158015612920573d6000803e3d6000fd5b505050506040513d601f19601f8201168201806040525081019061219c91906134e3565b600061295281808080612cc0565b905090565b606083838360405160200161296e93929190613dfe565b60405160208183030381529060405290509392505050565b6000806000846001600160a01b0316846040516129a39190613e3d565b6000604051808303816000865af19150503d80600081146129e0576040519150601f19603f3d011682016040523d82523d6000602084013e6129e5565b606091505b5091509150818015612a0f575080511580612a0f575080806020019051810190612a0f9190613e4f565b8015612a2557506000856001600160a01b03163b115b95945050505050565b6000612a436001600160a01b03841683612d22565b90508051600014158015612a68575080806020019051810190612a669190613e4f565b155b15610fbe57604051635274afe760e01b81526001600160a01b0384166004820152602401610aef565b6040516001600160a01b03838116602483015260448201839052610fbe91859182169063a9059cbb90606401612046565b600080600080612ad28686612d30565b925092509250612ae28282612d7d565b5090949350505050565b60606000808281612b00600482888a613b17565b612b0991613b41565b90506001600160e01b03198116633ce33bff60e01b14612b3c57604051631d6687e960e01b815260040160405180910390fd5b6000612b4b876004818b613b17565b810190612b589190613ea5565b929b919a509850909650945050505050565b612b7261302b565b60408051600060208201520160408051601f1981840301815290829052612b9d918490602001613cdd565b60405160208183030381529060405280602001905181019061219c9190613f45565b60006001600160a01b038416612bd6575081612c69565b604051636eb1769f60e11b81523060048201526001600160a01b03838116602483015284919086169063dd62ed3e90604401602060405180830381865afa158015612c25573d6000803e3d6000fd5b505050506040513d601f19601f82011682018060405250810190612c4991906134e3565b1015612c6557612c656001600160a01b03851683600019611fc4565b5060005b9392505050565b600080546001600160a01b038381166001600160a01b0319831681178455604051919092169283917f8be0079c531659141344cd1fd0a4f28419497f9722a3daafe3b4186f6b6457e09190a35050565b604080516001600160f81b03198087166020830152851660218201526000602282018190526001600160e01b03198516602683015269ffffffffffffffffffff198416602a8301529101604051602081830303815290604052612a259061403c565b6060612c6983836000612e3a565b60008060008351604103612d6a5760208401516040850151606086015160001a612d5c88828585612ed7565b955095509550505050612d76565b50508151600091506002905b9250925092565b6000826003811115612d9157612d91614063565b03612d9a575050565b6001826003811115612dae57612dae614063565b03612dcc5760405163f645eedf60e01b815260040160405180910390fd5b6002826003811115612de057612de0614063565b03612e015760405163fce698f760e01b815260048101829052602401610aef565b6003826003811115612e1557612e15614063565b03612e36576040516335e2f38360e21b815260048101829052602401610aef565b5050565b606081471015612e5f5760405163cd78605960e01b8152306004820152602401610aef565b600080856001600160a01b03168486604051612e7b9190613e3d565b60006040518083038185875af1925050503d8060008114612eb8576040519150601f19603f3d011682016040523d82523d6000602084013e612ebd565b606091505b5091509150612ecd868383612fa6565b9695505050505050565b600080807f7fffffffffffffffffffffffffffffff5d576e7357a4501ddfe92f46681b20a0841115612f125750600091506003905082612f9c565b604080516000808252602082018084528a905260ff891692820192909252606081018790526080810186905260019060a0016020604051602081039080840390855afa158015612f66573d6000803e3d6000fd5b5050604051601f1901519150506001600160a01b038116612f9257506000925060019150829050612f9c565b9250600091508190505b9450945094915050565b606082612fbb57612fb682613002565b612c69565b8151158015612fd257506001600160a01b0384163b155b15612ffb57604051639996b31560e01b81526001600160a01b0385166004820152602401610aef565b5080612c69565b8051156130125780518082602001fd5b604051630a12f52160e11b815260040160405180910390fd5b604080516101408101825260008082526020820181905291810182905260608082018390526080820183905260a0820183905260c0820183905260e0820152610100810182905261012081019190915290565b6001600160a01b038116811461078e57600080fd5b600080604083850312156130a657600080fd5b8235915060208301356130b88161307e565b809150509250929050565b6000602082840312156130d557600080fd5b8135612c698161307e565b60008083601f8401126130f257600080fd5b5081356001600160401b0381111561310957600080fd5b6020830191508360208260051b850101111561312457600080fd5b9250929050565b6000806000806060858703121561314157600080fd5b84356001600160401b0381111561315757600080fd5b613163878288016130e0565b90955093505060208501359150604085013561317e8161307e565b939692955090935050565b6000806020838503121561319c57600080fd5b82356001600160401b03808211156131b357600080fd5b818501915085601f8301126131c757600080fd5b8135818111156131d657600080fd5b86602060a0830285010111156131eb57600080fd5b60209290920196919550909350505050565b6000806000806040858703121561321357600080fd5b84356001600160401b038082111561322a57600080fd5b613236888389016130e0565b9096509450602087013591508082111561324f57600080fd5b5061325c878288016130e0565b95989497509550505050565b60008060006040848603121561327d57600080fd5b83356001600160401b038082111561329457600080fd5b9085019060c082880312156132a857600080fd5b909350602085013590808211156132be57600080fd5b506132cb868287016130e0565b9497909650939450505050565b600080600080600080600060e0888a0312156132f357600080fd5b87356132fe8161307e565b9650602088013561330e8161307e565b9550604088013561331e8161307e565b9450606088013561332e8161307e565b9350608088013561333e8161307e565b925060a088013561334e8161307e565b915060c088013561335e8161307e565b8091505092959891949750929550565b60008060008060006060868803121561338657600080fd5b8535945060208601356001600160401b03808211156133a457600080fd5b6133b089838a016130e0565b909650945060408801359150808211156133c957600080fd5b506133d6888289016130e0565b969995985093965092949392505050565b6000806000606084860312156133fc57600080fd5b83356134078161307e565b925060208401359150604084013561341e8161307e565b809150509250925092565b6000806040838503121561343c57600080fd5b82356134478161307e565b915060208301356130b88161307e565b60006020828403121561346957600080fd5b5035919050565b60008060008060006080868803121561348857600080fd5b85356001600160401b0381111561349e57600080fd5b6134aa888289016130e0565b90965094505060208601356134be8161307e565b92506040860135915060608601356134d58161307e565b809150509295509295909350565b6000602082840312156134f557600080fd5b5051919050565b634e487b7160e01b600052603260045260246000fd5b6001600160781b038116811461078e57600080fd5b60006020828403121561353957600080fd5b8135612c6981613512565b801515811461078e57600080fd5b813561355d81613512565b6001600160781b03811690508154816001600160781b03198216178355602084013561358881613512565b6effffffffffffffffffffffffffffff60781b60789190911b166001600160f01b0319821683178117845560408501356135c181613544565b6001600160f81b0319929092169092179190911790151560f01b60ff60f01b1617905550565b6000602082840312156135f957600080fd5b8135612c6981613544565b6000808335601e1984360301811261361b57600080fd5b8301803591506001600160401b0382111561363557600080fd5b60200191503681900382131561312457600080fd5b60006020828403121561365c57600080fd5b813580600e0b8114612c6957600080fd5b634e487b7160e01b600052601160045260246000fd5b8181038181111561219c5761219c61366d565b6000823560be198336030181126136ac57600080fd5b9190910192915050565b80516136c18161307e565b919050565b6000602082840312156136d857600080fd5b8151612c698161307e565b634e487b7160e01b600052604160045260246000fd5b6000808335601e1984360301811261371057600080fd5b83016020810192503590506001600160401b0381111561372f57600080fd5b8060051b360382131561312457600080fd5b6000808335601e1984360301811261375857600080fd5b83016020810192503590506001600160401b0381111561377757600080fd5b80360382131561312457600080fd5b81835281816020850137506000828201602090810191909152601f909101601f19169091010190565b60008383855260208086019550808560051b830101846000805b8881101561386257858403601f19018a52823536899003605e190181126137ee578283fd5b8801606081356137fd8161307e565b6001600160a01b0316865261381482880183613741565b82898901526138268389018284613786565b92505050604061383881840184613741565b93508783038289015261384c838583613786565b9d89019d975050509386019350506001016137c9565b509198975050505050505050565b60208082528181018390526000906040808401600586901b850182018785805b8981101561395457888403603f190185528235368c900360be190181126138b5578283fd5b8b0160c081356138c48161307e565b6001600160a01b039081168752828a0135906138df8261307e565b16868a0152818801358887015260606138fa818401846136f9565b83838a015261390c848a0182846137af565b9350505050608080830135818801525060a061392a81840184613741565b93508783038289015261393e838583613786565b988b019897505050938801935050600101613890565b50919998505050505050505050565b60005b8381101561397e578181015183820152602001613966565b50506000910152565b6000815180845261399f816020860160208601613963565b601f01601f19169290920160200192915050565b60008282518085526020808601955060208260051b8401016020860160005b84811015613a0057601f198684030189526139ee838351613987565b988401989250908301906001016139d2565b5090979650505050505050565b606081526000613a2060608301866139b3565b82810360208481019190915285518083528682019282019060005b81811015613a5757845183529383019391830191600101613a3b565b50508481036040860152613a6b81876139b3565b98975050505050505050565b60a081526000613a8b60a08301888a613786565b602083019690965250600e93840b60408201529190920b60608201526001600160a01b0390911660809091015292915050565b8082018082111561219c5761219c61366d565b608081526000613ae46080830187613987565b6001600160a01b0386166020840152604083018590528281036060840152613b0c8185613987565b979650505050505050565b60008085851115613b2757600080fd5b83861115613b3457600080fd5b5050820193919092039150565b6001600160e01b03198135818116916004851015613b695780818660040360031b1b83161692505b505092915050565b60405161014081016001600160401b0381118282101715613b9457613b946136e3565b60405290565b604051601f8201601f191681016001600160401b0381118282101715613bc257613bc26136e3565b604052919050565b60006001600160401b03821115613be357613be36136e3565b50601f01601f191660200190565b6000613c04613bff84613bca565b613b9a565b9050828152838383011115613c1857600080fd5b612c69836020830184613963565b600082601f830112613c3757600080fd5b612c6983835160208501613bf1565b60008060008060808587031215613c5c57600080fd5b84516001600160401b0380821115613c7357600080fd5b818701915087601f830112613c8757600080fd5b613c9688835160208501613bf1565b955060208701519150613ca88261307e565b60408701516060880151929550935080821115613cc457600080fd5b50613cd187828801613c26565b91505092959194509250565b60008351613cef818460208801613963565b835190830190613d03818360208801613963565b01949350505050565b60008060008060008060008060006101208a8c031215613d2b57600080fd5b8951613d368161307e565b60208b0151909950613d478161307e565b60408b0151909850613d588161307e565b8097505060608a0151955060808a0151945060a08a01516001600160401b03811115613d8357600080fd5b613d8f8c828d01613c26565b94505060c08a0151925060e08a0151613da78161307e565b6101008b0151909250613db981613544565b809150509295985092959850929598565b6001600160a01b039485168152929093166020830152600e0b60408201526001600160781b03909116606082015260800190565b6bffffffffffffffffffffffff198460601b16815282601482015260008251613e2e816034850160208701613963565b91909101603401949350505050565b600082516136ac818460208701613963565b600060208284031215613e6157600080fd5b8151612c6981613544565b6000613e7a613bff84613bca565b9050828152838383011115613e8e57600080fd5b828260208301376000602084830101529392505050565b60008060008060808587031215613ebb57600080fd5b84356001600160401b0380821115613ed257600080fd5b818701915087601f830112613ee657600080fd5b613ef588833560208501613e6c565b955060208701359150613f078261307e565b9093506040860135925060608601359080821115613f2457600080fd5b508501601f81018713613f3657600080fd5b613cd187823560208401613e6c565b600060208284031215613f5757600080fd5b81516001600160401b0380821115613f6e57600080fd5b908301906101408286031215613f8357600080fd5b613f8b613b71565b613f94836136b6565b8152613fa2602084016136b6565b6020820152613fb3604084016136b6565b604082015260608301516060820152613fce608084016136b6565b6080820152613fdf60a084016136b6565b60a082015260c083015160c082015260e08301518281111561400057600080fd5b61400c87828601613c26565b60e0830152506101008381015190820152610120915061402d8284016136b6565b91810191909152949350505050565b8051602080830151919081101561405d576000198160200360031b1b821691505b50919050565b634e487b7160e01b600052602160045260246000fdfea26469706673582212204424c0b5af8ae105363e6faafcbf4875a697bec40a633df402c25fbcabbf8d7064736f6c63430008170033000000000000000000000000ba560d1320983bc9da64d3a14d0e912a4ce549a6",
        "nonce": "0x26",
        "chainId": "0xe708"
      },
      "additionalContracts": [],
      "isFixedGasLimit": false
    },
    {
      "hash": "0x12c47f0df1bd99258c71296940150977af3a95017ad7e9e497f406694b6c4e00",
      "transactionType": "CALL",
      "contractName": "TreasuryManager",
      "contractAddress": "0xebcbe17db2be77c4627e3483ad0d33b0ea37978c",
      "function": "initialize(address,address,address,address,address,address,address)",
      "arguments": [
        "0x24ddEB9245cbBDE6BC3dfd14AA7df88374C1e0fC",
        "0xdb9B1e94B5b69Df7e401DDbedE43491141047dB3",
        "0x9dDA6Ef3D919c9bC8885D5560999A3640431e8e6",
        "0xE3d0d2607182Af5B24f5C3C2E4990A053aDd64e3",
        "0xe5D7C2a44FfDDf6b295A15c148167daaAf5Cf34f",
        "0x0000000000000000000000000000000000000000",
        "0x0000000000000000000000000000000000000000"
      ],
      "transaction": {
        "from": "0xba560d1320983bc9da64d3a14d0e912a4ce549a6",
        "to": "0xebcbe17db2be77c4627e3483ad0d33b0ea37978c",
        "gas": "0x3b881",
        "value": "0x0",
        "input": "0x3587647600000000000000000000000024ddeb9245cbbde6bc3dfd14aa7df88374c1e0fc000000000000000000000000db9b1e94b5b69df7e401ddbede43491141047db30000000000000000000000009dda6ef3d919c9bc8885d5560999a3640431e8e6000000000000000000000000e3d0d2607182af5b24f5c3c2e4990a053add64e3000000000000000000000000e5d7c2a44ffddf6b295a15c148167daaaf5cf34f00000000000000000000000000000000000000000000000000000000000000000000000000000000000000000000000000000000000000000000000000000000",
        "nonce": "0x27",
        "chainId": "0xe708"
      },
      "additionalContracts": [],
      "isFixedGasLimit": false
    },
    {
      "hash": "0xfacfe0e381cb376936132bfbf5d841deb9ff90881f80913fe1da88f83d3ae923",
      "transactionType": "CALL",
      "contractName": "TreasuryManager",
      "contractAddress": "0xebcbe17db2be77c4627e3483ad0d33b0ea37978c",
      "function": "updateAllowedCallers(address[],bool[])",
      "arguments": [
        "[0x8BfEB19507eec4C597538e0444253501166081De]",
        "[true]"
      ],
      "transaction": {
        "from": "0xba560d1320983bc9da64d3a14d0e912a4ce549a6",
        "to": "0xebcbe17db2be77c4627e3483ad0d33b0ea37978c",
        "gas": "0x12788",
        "value": "0x0",
        "input": "0x2a0a7dcb0000000000000000000000000000000000000000000000000000000000000040000000000000000000000000000000000000000000000000000000000000008000000000000000000000000000000000000000000000000000000000000000010000000000000000000000008bfeb19507eec4c597538e0444253501166081de00000000000000000000000000000000000000000000000000000000000000010000000000000000000000000000000000000000000000000000000000000001",
        "nonce": "0x28",
        "chainId": "0xe708"
      },
      "additionalContracts": [],
      "isFixedGasLimit": false
    },
    {
      "hash": "0x2642072ced72ea55fd1835f4710e0ebe3cd1008f4cb4fa55c73392f6bb26f289",
      "transactionType": "CALL",
      "contractName": "TreasuryManager",
      "contractAddress": "0xebcbe17db2be77c4627e3483ad0d33b0ea37978c",
      "function": "setPairLimits((address,address,(uint120,uint120,bool))[])",
      "arguments": [
        "[(0x0000000000000000000000000000000000000000, 0x176211869cA2b568f2A7D4EE941E073a821EE1ff, (10000000000000000000, 10000000000000000000, true)), (0xA219439258ca9da29E9Cc4cE5596924745e12B93, 0x176211869cA2b568f2A7D4EE941E073a821EE1ff, (10000000000000000000, 10000000000000000000, true)), (0x4AF15ec2A0BD43Db75dd04E62FAA3B8EF36b00d5, 0x176211869cA2b568f2A7D4EE941E073a821EE1ff, (10000000000000000000, 10000000000000000000, true)), (0x3aAB2285ddcDdaD8edf438C1bAB47e1a9D05a9b4, 0x176211869cA2b568f2A7D4EE941E073a821EE1ff, (10000000000000000000, 10000000000000000000, true))]"
      ],
      "transaction": {
        "from": "0xba560d1320983bc9da64d3a14d0e912a4ce549a6",
        "to": "0xebcbe17db2be77c4627e3483ad0d33b0ea37978c",
        "gas": "0x2fd48",
        "value": "0x0",
        "input": "0x1b31fdea000000000000000000000000000000000000000000000000000000000000002000000000000000000000000000000000000000000000000000000000000000040000000000000000000000000000000000000000000000000000000000000000000000000000000000000000176211869ca2b568f2a7d4ee941e073a821ee1ff0000000000000000000000000000000000000000000000008ac7230489e800000000000000000000000000000000000000000000000000008ac7230489e800000000000000000000000000000000000000000000000000000000000000000001000000000000000000000000a219439258ca9da29e9cc4ce5596924745e12b93000000000000000000000000176211869ca2b568f2a7d4ee941e073a821ee1ff0000000000000000000000000000000000000000000000008ac7230489e800000000000000000000000000000000000000000000000000008ac7230489e8000000000000000000000000000000000000000000000000000000000000000000010000000000000000000000004af15ec2a0bd43db75dd04e62faa3b8ef36b00d5000000000000000000000000176211869ca2b568f2a7d4ee941e073a821ee1ff0000000000000000000000000000000000000000000000008ac7230489e800000000000000000000000000000000000000000000000000008ac7230489e8000000000000000000000000000000000000000000000000000000000000000000010000000000000000000000003aab2285ddcddad8edf438c1bab47e1a9d05a9b4000000000000000000000000176211869ca2b568f2a7d4ee941e073a821ee1ff0000000000000000000000000000000000000000000000008ac7230489e800000000000000000000000000000000000000000000000000008ac7230489e800000000000000000000000000000000000000000000000000000000000000000001",
        "nonce": "0x29",
        "chainId": "0xe708"
      },
      "additionalContracts": [],
      "isFixedGasLimit": false
    },
    {
      "hash": "0x6879c6c95fc1e6951a8dabab7218d72d05fe274c0b411c90e46a37e563a10d63",
      "transactionType": "CALL",
      "contractName": "TreasuryManager",
      "contractAddress": "0xebcbe17db2be77c4627e3483ad0d33b0ea37978c",
      "function": "updateAllowedDestWallets(address[],bool[])",
      "arguments": [
        "[0x3EFC72fF137A5603Ce2E7108a70e56CAb49bf1e2]",
        "[true]"
      ],
      "transaction": {
        "from": "0xba560d1320983bc9da64d3a14d0e912a4ce549a6",
        "to": "0xebcbe17db2be77c4627e3483ad0d33b0ea37978c",
        "gas": "0x11756",
        "value": "0x0",
        "input": "0xf97c919c0000000000000000000000000000000000000000000000000000000000000040000000000000000000000000000000000000000000000000000000000000008000000000000000000000000000000000000000000000000000000000000000010000000000000000000000003efc72ff137a5603ce2e7108a70e56cab49bf1e200000000000000000000000000000000000000000000000000000000000000010000000000000000000000000000000000000000000000000000000000000001",
        "nonce": "0x2a",
        "chainId": "0xe708"
      },
      "additionalContracts": [],
      "isFixedGasLimit": false
    },
    {
      "hash": "0x19b7701b413cfbcbc6fafa479c924f876b4049c49e5d45229dcc4264df667a0d",
      "transactionType": "CALL",
      "contractName": "TreasuryManager",
      "contractAddress": "0xebcbe17db2be77c4627e3483ad0d33b0ea37978c",
      "function": "updateAllowedTokensTo(address[],bool[])",
      "arguments": [
        "[0x176211869cA2b568f2A7D4EE941E073a821EE1ff]",
        "[true]"
      ],
      "transaction": {
        "from": "0xba560d1320983bc9da64d3a14d0e912a4ce549a6",
        "to": "0xebcbe17db2be77c4627e3483ad0d33b0ea37978c",
        "gas": "0x13480",
        "value": "0x0",
        "input": "0x22ae649b000000000000000000000000000000000000000000000000000000000000004000000000000000000000000000000000000000000000000000000000000000800000000000000000000000000000000000000000000000000000000000000001000000000000000000000000176211869ca2b568f2a7d4ee941e073a821ee1ff00000000000000000000000000000000000000000000000000000000000000010000000000000000000000000000000000000000000000000000000000000001",
        "nonce": "0x2b",
        "chainId": "0xe708"
      },
      "additionalContracts": [],
      "isFixedGasLimit": false
    },
    {
      "hash": "0xe88dd7601fbfb6baa0ef522a208f79f82ce3ef92026e1527e6489ee2abf1bfe4",
      "transactionType": "CALL",
      "contractName": "TreasuryManager",
      "contractAddress": "0xebcbe17db2be77c4627e3483ad0d33b0ea37978c",
      "function": "updateDestinationChains(uint256[],bool[])",
      "arguments": [
        "[1]",
        "[true]"
      ],
      "transaction": {
        "from": "0xba560d1320983bc9da64d3a14d0e912a4ce549a6",
        "to": "0xebcbe17db2be77c4627e3483ad0d33b0ea37978c",
        "gas": "0x1150c",
        "value": "0x0",
        "input": "0x53838cf1000000000000000000000000000000000000000000000000000000000000004000000000000000000000000000000000000000000000000000000000000000800000000000000000000000000000000000000000000000000000000000000001000000000000000000000000000000000000000000000000000000000000000100000000000000000000000000000000000000000000000000000000000000010000000000000000000000000000000000000000000000000000000000000001",
        "nonce": "0x2c",
        "chainId": "0xe708"
      },
      "additionalContracts": [],
      "isFixedGasLimit": false
    },
    {
      "hash": "0xecd9ad0b04ae6a7cd48ac243cb89f3b60f7d3209bf8437f98158cb91cfa14f26",
      "transactionType": "CALL",
      "contractName": "TreasuryManager",
      "contractAddress": "0xebcbe17db2be77c4627e3483ad0d33b0ea37978c",
      "function": "updateAllowedBridgeDestWallets(uint256,address[],bool[])",
      "arguments": [
        "1",
        "[0x3EFC72fF137A5603Ce2E7108a70e56CAb49bf1e2]",
        "[true]"
      ],
      "transaction": {
        "from": "0xba560d1320983bc9da64d3a14d0e912a4ce549a6",
        "to": "0xebcbe17db2be77c4627e3483ad0d33b0ea37978c",
        "gas": "0x12b80",
        "value": "0x0",
        "input": "0x3f175bcc0000000000000000000000000000000000000000000000000000000000000001000000000000000000000000000000000000000000000000000000000000006000000000000000000000000000000000000000000000000000000000000000a000000000000000000000000000000000000000000000000000000000000000010000000000000000000000003efc72ff137a5603ce2e7108a70e56cab49bf1e200000000000000000000000000000000000000000000000000000000000000010000000000000000000000000000000000000000000000000000000000000001",
        "nonce": "0x2d",
        "chainId": "0xe708"
      },
      "additionalContracts": [],
      "isFixedGasLimit": false
    },
    {
      "hash": "0x34343b83699892390695942e4d21e15867c946e3989bf9d9c658eec2345bda2f",
      "transactionType": "CALL",
      "contractName": "TreasuryManager",
      "contractAddress": "0xebcbe17db2be77c4627e3483ad0d33b0ea37978c",
      "function": "updateAllowedBridgeTokensTo(uint256,address[],bool[])",
      "arguments": [
        "1",
        "[0xA0b86991c6218b36c1d19D4a2e9Eb0cE3606eB48]",
        "[true]"
      ],
      "transaction": {
        "from": "0xba560d1320983bc9da64d3a14d0e912a4ce549a6",
        "to": "0xebcbe17db2be77c4627e3483ad0d33b0ea37978c",
        "gas": "0x12c01",
        "value": "0x0",
        "input": "0x706d870a0000000000000000000000000000000000000000000000000000000000000001000000000000000000000000000000000000000000000000000000000000006000000000000000000000000000000000000000000000000000000000000000a00000000000000000000000000000000000000000000000000000000000000001000000000000000000000000a0b86991c6218b36c1d19d4a2e9eb0ce3606eb4800000000000000000000000000000000000000000000000000000000000000010000000000000000000000000000000000000000000000000000000000000001",
        "nonce": "0x2e",
        "chainId": "0xe708"
      },
      "additionalContracts": [],
      "isFixedGasLimit": false
    }
  ],
  "receipts": [
    {
      "status": "0x1",
      "cumulativeGasUsed": "0x384e69",
      "logs": [
        {
          "address": "0xebcbe17db2be77c4627e3483ad0d33b0ea37978c",
          "topics": [
            "0x8be0079c531659141344cd1fd0a4f28419497f9722a3daafe3b4186f6b6457e0",
            "0x0000000000000000000000000000000000000000000000000000000000000000",
            "0x000000000000000000000000ba560d1320983bc9da64d3a14d0e912a4ce549a6"
          ],
          "data": "0x",
          "blockHash": "0x6166270f152fc771c7e6478559728b0acda07d294c1705a95d3c129b5c2f1423",
          "blockNumber": "0x1d369a4",
          "blockTimestamp": "0x6a04b6d4",
          "transactionHash": "0x12c47f0df1bd99258c71296940150977af3a95017ad7e9e497f406694b6c4e00",
          "transactionIndex": "0x0",
          "logIndex": "0x0",
          "removed": false
        }
      ],
      "logsBloom": "0x00000000000000000000000000000000000000000000000000800000000000000000000400000000000000000000000000000000000000000000000000000000000000000000000000000000000000000001000000000000000000000000000000000000020000000000000000000800000000000000100000000000000000400020000000000000000000000000000000000000000000000000000000000000000000000000000000000000000000004000000000008000000000000000000000000080000000000000000000000000000000000000000000000000000020000000000000000000000000000000000000000000000000000000000000000000",
      "type": "0x2",
      "transactionHash": "0x12c47f0df1bd99258c71296940150977af3a95017ad7e9e497f406694b6c4e00",
      "transactionIndex": "0x0",
      "blockHash": "0x6166270f152fc771c7e6478559728b0acda07d294c1705a95d3c129b5c2f1423",
      "blockNumber": "0x1d369a4",
      "gasUsed": "0x384e69",
      "effectiveGasPrice": "0x33ec5b0",
      "from": "0xba560d1320983bc9da64d3a14d0e912a4ce549a6",
      "to": "0x4e59b44847b379578588920ca78fbf26c0b4956c",
      "contractAddress": "0xebcbe17db2be77c4627e3483ad0d33b0ea37978c"
    },
    {
      "status": "0x1",
      "cumulativeGasUsed": "0x3ad9b2",
      "logs": [
        {
          "address": "0xebcbe17db2be77c4627e3483ad0d33b0ea37978c",
          "topics": [
            "0x058545a3b7316b1fe898725a6ee25af0c11ad1a4c8583780c6f59a6c61456af7",
            "0x0000000000000000000000000000000000000000000000000000000000000000",
            "0x00000000000000000000000024ddeb9245cbbde6bc3dfd14aa7df88374c1e0fc"
          ],
          "data": "0x",
          "blockHash": "0x6166270f152fc771c7e6478559728b0acda07d294c1705a95d3c129b5c2f1423",
          "blockNumber": "0x1d369a4",
          "blockTimestamp": "0x6a04b6d4",
          "transactionHash": "0xb10c3d67c69b8d73528a349b6bd45503e4055faf03dc2f55dd4eebbfc23febf6",
          "transactionIndex": "0x1",
          "logIndex": "0x1",
          "removed": false
        },
        {
          "address": "0xebcbe17db2be77c4627e3483ad0d33b0ea37978c",
          "topics": [
            "0x2de78ebb0655f324013be92e0ca10fb3d823901ca99cb6f44664949ec3374ab9",
            "0x00000000000000000000000024ddeb9245cbbde6bc3dfd14aa7df88374c1e0fc",
            "0x000000000000000000000000db9b1e94b5b69df7e401ddbede43491141047db3",
            "0x0000000000000000000000009dda6ef3d919c9bc8885d5560999a3640431e8e6"
          ],
          "data": "0x000000000000000000000000e3d0d2607182af5b24f5c3c2e4990a053add64e3000000000000000000000000e5d7c2a44ffddf6b295a15c148167daaaf5cf34f00000000000000000000000000000000000000000000000000000000000000000000000000000000000000000000000000000000000000000000000000000000",
          "blockHash": "0x6166270f152fc771c7e6478559728b0acda07d294c1705a95d3c129b5c2f1423",
          "blockNumber": "0x1d369a4",
          "blockTimestamp": "0x6a04b6d4",
          "transactionHash": "0xb10c3d67c69b8d73528a349b6bd45503e4055faf03dc2f55dd4eebbfc23febf6",
          "transactionIndex": "0x1",
          "logIndex": "0x2",
          "removed": false
        }
      ],
      "logsBloom": "0x00000800000000000000000000000000000000000000000000000000000000000040000000000000000000000000000000000000000000000000001004000000000000800000000000000000000000000000000004000000000000000000000000000100060000000000000000000800000000000000100000000000000000000000000000000000010000000000000000000000000000000000000000000000000000000100000000000000100000004000000000008000000000000000000000000000000000000000000020000000000000000000000000000000000020000000000000000000000000100000000000000002800000000000000000000000",
      "type": "0x2",
      "transactionHash": "0xb10c3d67c69b8d73528a349b6bd45503e4055faf03dc2f55dd4eebbfc23febf6",
      "transactionIndex": "0x1",
      "blockHash": "0x6166270f152fc771c7e6478559728b0acda07d294c1705a95d3c129b5c2f1423",
      "blockNumber": "0x1d369a4",
      "gasUsed": "0x28b49",
      "effectiveGasPrice": "0x33ec5b0",
      "from": "0xba560d1320983bc9da64d3a14d0e912a4ce549a6",
      "to": "0xebcbe17db2be77c4627e3483ad0d33b0ea37978c",
      "contractAddress": null
    },
    {
      "status": "0x1",
      "cumulativeGasUsed": "0x3ba3c5",
      "logs": [
        {
          "address": "0xebcbe17db2be77c4627e3483ad0d33b0ea37978c",
          "topics": [
            "0xe4c0229512bf8f95820cb6c77daf50e732d16748510f9339a7ad67f6acc78faa",
            "0x0000000000000000000000008bfeb19507eec4c597538e0444253501166081de",
            "0x0000000000000000000000000000000000000000000000000000000000000001"
          ],
          "data": "0x",
          "blockHash": "0x6166270f152fc771c7e6478559728b0acda07d294c1705a95d3c129b5c2f1423",
          "blockNumber": "0x1d369a4",
          "blockTimestamp": "0x6a04b6d4",
          "transactionHash": "0x19b7701b413cfbcbc6fafa479c924f876b4049c49e5d45229dcc4264df667a0d",
          "transactionIndex": "0x2",
          "logIndex": "0x3",
          "removed": false
        }
      ],
      "logsBloom": "0x00000000000000000000000000000000000000000000000000000000000000000000000000000000000000000000000000000000000000000040000000040000000000000000000000000000000000000000008000040000000000004000000000000000000000000000000000800000000000000000100000000000000000000000000000000000000000000000000000000000000000000000000000000000000000000000000000000000000000004000000000008000000000000000000000000000000000000000000400000000000000000000000000000000000040000000000000000000000000001000000000000000000000000000000000000000",
      "type": "0x2",
      "transactionHash": "0x19b7701b413cfbcbc6fafa479c924f876b4049c49e5d45229dcc4264df667a0d",
      "transactionIndex": "0x2",
      "blockHash": "0x6166270f152fc771c7e6478559728b0acda07d294c1705a95d3c129b5c2f1423",
      "blockNumber": "0x1d369a4",
      "gasUsed": "0xca13",
      "effectiveGasPrice": "0x33ec5b0",
      "from": "0xba560d1320983bc9da64d3a14d0e912a4ce549a6",
      "to": "0xebcbe17db2be77c4627e3483ad0d33b0ea37978c",
      "contractAddress": null
    },
    {
      "status": "0x1",
      "cumulativeGasUsed": "0x3dcdd3",
      "logs": [
        {
          "address": "0xebcbe17db2be77c4627e3483ad0d33b0ea37978c",
          "topics": [
            "0x9ceec2447d9b8c3f88ade71b3e3f278f653390e8d0ff9d51667d530f9207978d",
            "0x0000000000000000000000000000000000000000000000000000000000000000",
            "0x000000000000000000000000176211869ca2b568f2a7d4ee941e073a821ee1ff"
          ],
          "data": "0x0000000000000000000000000000000000000000000000008ac7230489e800000000000000000000000000000000000000000000000000008ac7230489e800000000000000000000000000000000000000000000000000000000000000000001",
          "blockHash": "0x6166270f152fc771c7e6478559728b0acda07d294c1705a95d3c129b5c2f1423",
          "blockNumber": "0x1d369a4",
          "blockTimestamp": "0x6a04b6d4",
          "transactionHash": "0x2642072ced72ea55fd1835f4710e0ebe3cd1008f4cb4fa55c73392f6bb26f289",
          "transactionIndex": "0x3",
          "logIndex": "0x4",
          "removed": false
        },
        {
          "address": "0xebcbe17db2be77c4627e3483ad0d33b0ea37978c",
          "topics": [
            "0x9ceec2447d9b8c3f88ade71b3e3f278f653390e8d0ff9d51667d530f9207978d",
            "0x000000000000000000000000a219439258ca9da29e9cc4ce5596924745e12b93",
            "0x000000000000000000000000176211869ca2b568f2a7d4ee941e073a821ee1ff"
          ],
          "data": "0x0000000000000000000000000000000000000000000000008ac7230489e800000000000000000000000000000000000000000000000000008ac7230489e800000000000000000000000000000000000000000000000000000000000000000001",
          "blockHash": "0x6166270f152fc771c7e6478559728b0acda07d294c1705a95d3c129b5c2f1423",
          "blockNumber": "0x1d369a4",
          "blockTimestamp": "0x6a04b6d4",
          "transactionHash": "0x2642072ced72ea55fd1835f4710e0ebe3cd1008f4cb4fa55c73392f6bb26f289",
          "transactionIndex": "0x3",
          "logIndex": "0x5",
          "removed": false
        },
        {
          "address": "0xebcbe17db2be77c4627e3483ad0d33b0ea37978c",
          "topics": [
            "0x9ceec2447d9b8c3f88ade71b3e3f278f653390e8d0ff9d51667d530f9207978d",
            "0x0000000000000000000000004af15ec2a0bd43db75dd04e62faa3b8ef36b00d5",
            "0x000000000000000000000000176211869ca2b568f2a7d4ee941e073a821ee1ff"
          ],
          "data": "0x0000000000000000000000000000000000000000000000008ac7230489e800000000000000000000000000000000000000000000000000008ac7230489e800000000000000000000000000000000000000000000000000000000000000000001",
          "blockHash": "0x6166270f152fc771c7e6478559728b0acda07d294c1705a95d3c129b5c2f1423",
          "blockNumber": "0x1d369a4",
          "blockTimestamp": "0x6a04b6d4",
          "transactionHash": "0x2642072ced72ea55fd1835f4710e0ebe3cd1008f4cb4fa55c73392f6bb26f289",
          "transactionIndex": "0x3",
          "logIndex": "0x6",
          "removed": false
        },
        {
          "address": "0xebcbe17db2be77c4627e3483ad0d33b0ea37978c",
          "topics": [
            "0x9ceec2447d9b8c3f88ade71b3e3f278f653390e8d0ff9d51667d530f9207978d",
            "0x0000000000000000000000003aab2285ddcddad8edf438c1bab47e1a9d05a9b4",
            "0x000000000000000000000000176211869ca2b568f2a7d4ee941e073a821ee1ff"
          ],
          "data": "0x0000000000000000000000000000000000000000000000008ac7230489e800000000000000000000000000000000000000000000000000008ac7230489e800000000000000000000000000000000000000000000000000000000000000000001",
          "blockHash": "0x6166270f152fc771c7e6478559728b0acda07d294c1705a95d3c129b5c2f1423",
          "blockNumber": "0x1d369a4",
          "blockTimestamp": "0x6a04b6d4",
          "transactionHash": "0x2642072ced72ea55fd1835f4710e0ebe3cd1008f4cb4fa55c73392f6bb26f289",
          "transactionIndex": "0x3",
          "logIndex": "0x7",
          "removed": false
        }
      ],
      "logsBloom": "0x00000000000000000000000000000000000000000000000000000000010000000000000000000000400020000000000000000000080000000000000000000000000000000000040000080000000000000000000000000000000000000000000000000000020000000000000000000800800000000000100000000000000000000000000000000200000000000000000000000000000001000000000020000000000000000000000000000000000000004000000000008100000000000000000000000000000000080000000000000000000200000000000000000000080020000000000000000000000000000000000000000000000800000000000000000000",
      "type": "0x2",
      "transactionHash": "0x2642072ced72ea55fd1835f4710e0ebe3cd1008f4cb4fa55c73392f6bb26f289",
      "transactionIndex": "0x3",
      "blockHash": "0x6166270f152fc771c7e6478559728b0acda07d294c1705a95d3c129b5c2f1423",
      "blockNumber": "0x1d369a4",
      "gasUsed": "0x22a0e",
      "effectiveGasPrice": "0x33ec5b0",
      "from": "0xba560d1320983bc9da64d3a14d0e912a4ce549a6",
      "to": "0xebcbe17db2be77c4627e3483ad0d33b0ea37978c",
      "contractAddress": null
    },
    {
      "status": "0x1",
      "cumulativeGasUsed": "0x3e9810",
      "logs": [
        {
          "address": "0xebcbe17db2be77c4627e3483ad0d33b0ea37978c",
          "topics": [
            "0xec1d5c5535346cdaa2ffc98b7dd33e122f3b517c5ac4047b12c78564faa8ecca",
            "0x0000000000000000000000003efc72ff137a5603ce2e7108a70e56cab49bf1e2",
            "0x0000000000000000000000000000000000000000000000000000000000000001"
          ],
          "data": "0x",
          "blockHash": "0x6166270f152fc771c7e6478559728b0acda07d294c1705a95d3c129b5c2f1423",
          "blockNumber": "0x1d369a4",
          "blockTimestamp": "0x6a04b6d4",
          "transactionHash": "0xe88dd7601fbfb6baa0ef522a208f79f82ce3ef92026e1527e6489ee2abf1bfe4",
          "transactionIndex": "0x4",
          "logIndex": "0x8",
          "removed": false
        }
      ],
      "logsBloom": "0x00000000000000000000000000000000000000000000000000000000000000000000000000000000001000000000000080000000000000000000000000040000000000000000000000000000000000000000000000040000000000000000000000000000000000000000000000000000000000000000100000000000000000000000004000000000000000000000000000000000000000000000000000000000000000000000000000100000000000004000000000008000000000000000000000000000000000000000000000000000004000000000000000000000000040000000000000000000100000000000000000000000000000000000000000000000",
      "type": "0x2",
      "transactionHash": "0xe88dd7601fbfb6baa0ef522a208f79f82ce3ef92026e1527e6489ee2abf1bfe4",
      "transactionIndex": "0x4",
      "blockHash": "0x6166270f152fc771c7e6478559728b0acda07d294c1705a95d3c129b5c2f1423",
      "blockNumber": "0x1d369a4",
      "gasUsed": "0xca3d",
      "effectiveGasPrice": "0x33ec5b0",
      "from": "0xba560d1320983bc9da64d3a14d0e912a4ce549a6",
      "to": "0xebcbe17db2be77c4627e3483ad0d33b0ea37978c",
      "contractAddress": null
    },
    {
      "status": "0x1",
      "cumulativeGasUsed": "0x3f6b01",
      "logs": [
        {
          "address": "0xebcbe17db2be77c4627e3483ad0d33b0ea37978c",
          "topics": [
            "0xf0706afab3886c70e4efb6442b06010327e329eb692f4b6317a43f03ac1915e7",
            "0x000000000000000000000000176211869ca2b568f2a7d4ee941e073a821ee1ff",
            "0x0000000000000000000000000000000000000000000000000000000000000001"
          ],
          "data": "0x",
          "blockHash": "0x6166270f152fc771c7e6478559728b0acda07d294c1705a95d3c129b5c2f1423",
          "blockNumber": "0x1d369a4",
          "blockTimestamp": "0x6a04b6d4",
          "transactionHash": "0x34343b83699892390695942e4d21e15867c946e3989bf9d9c658eec2345bda2f",
          "transactionIndex": "0x5",
          "logIndex": "0x9",
          "removed": false
        }
      ],
      "logsBloom": "0x40000000002000000000000000000000000000000000000000000000000000000000000000000000000000000000000000000000000000000000000000040000000000000000000000080000000000000000000000040000000000000000000000000000000000000000000000000000800000000000100000000000000000000000000000000000000000000000000000000000000000000000000000000000000000000000000000000000000000004000000000008000000000000000010000000000000000000000000000000000000200000000000000000000000040000000000000000000000000000000000000000000000000000000000000000000",
      "type": "0x2",
      "transactionHash": "0x34343b83699892390695942e4d21e15867c946e3989bf9d9c658eec2345bda2f",
      "transactionIndex": "0x5",
      "blockHash": "0x6166270f152fc771c7e6478559728b0acda07d294c1705a95d3c129b5c2f1423",
      "blockNumber": "0x1d369a4",
      "gasUsed": "0xd2f1",
      "effectiveGasPrice": "0x33ec5b0",
      "from": "0xba560d1320983bc9da64d3a14d0e912a4ce549a6",
      "to": "0xebcbe17db2be77c4627e3483ad0d33b0ea37978c",
      "contractAddress": null
    },
    {
      "status": "0x1",
      "cumulativeGasUsed": "0x403395",
      "logs": [
        {
          "address": "0xebcbe17db2be77c4627e3483ad0d33b0ea37978c",
          "topics": [
            "0xcbb505ed67aeeff8c5aaf23d496bbda7d9cc9ee049b51ba92fba8052bc4173b3",
            "0x0000000000000000000000000000000000000000000000000000000000000001",
            "0x0000000000000000000000000000000000000000000000000000000000000001"
          ],
          "data": "0x",
          "blockHash": "0x6166270f152fc771c7e6478559728b0acda07d294c1705a95d3c129b5c2f1423",
          "blockNumber": "0x1d369a4",
          "blockTimestamp": "0x6a04b6d4",
          "transactionHash": "0x6879c6c95fc1e6951a8dabab7218d72d05fe274c0b411c90e46a37e563a10d63",
          "transactionIndex": "0x6",
          "logIndex": "0xa",
          "removed": false
        }
      ],
      "logsBloom": "0x00000000000000000000000000000000000000000000000000000000000000000000000000000000000000000000000000000000000000000000000000040000000000000000000000000000000000000000000000040000000000000000100000000000000000000000000000000000000000000000100000000000000000000000000000000000000000000000000000000000000000000000040000004000000000000000000000000000000000004000000000008000000000000000000000000000000000000000000000000000000000000000000000000000000040000000000000000000000000000000000000000000000000000000000000000000",
      "type": "0x2",
      "transactionHash": "0x6879c6c95fc1e6951a8dabab7218d72d05fe274c0b411c90e46a37e563a10d63",
      "transactionIndex": "0x6",
      "blockHash": "0x6166270f152fc771c7e6478559728b0acda07d294c1705a95d3c129b5c2f1423",
      "blockNumber": "0x1d369a4",
      "gasUsed": "0xc894",
      "effectiveGasPrice": "0x33ec5b0",
      "from": "0xba560d1320983bc9da64d3a14d0e912a4ce549a6",
      "to": "0xebcbe17db2be77c4627e3483ad0d33b0ea37978c",
      "contractAddress": null
    },
    {
      "status": "0x1",
      "cumulativeGasUsed": "0x41005f",
      "logs": [
        {
          "address": "0xebcbe17db2be77c4627e3483ad0d33b0ea37978c",
          "topics": [
            "0xf8cf5da5f026ee17fe23dd82371cd8ff65f7677f17082212d842aba4bbb00095",
            "0x0000000000000000000000000000000000000000000000000000000000000001",
            "0x0000000000000000000000003efc72ff137a5603ce2e7108a70e56cab49bf1e2",
            "0x0000000000000000000000000000000000000000000000000000000000000001"
          ],
          "data": "0x",
          "blockHash": "0x6166270f152fc771c7e6478559728b0acda07d294c1705a95d3c129b5c2f1423",
          "blockNumber": "0x1d369a4",
          "blockTimestamp": "0x6a04b6d4",
          "transactionHash": "0xecd9ad0b04ae6a7cd48ac243cb89f3b60f7d3209bf8437f98158cb91cfa14f26",
          "transactionIndex": "0x7",
          "logIndex": "0xb",
          "removed": false
        }
      ],
      "logsBloom": "0x00000000000000000000000000000000001000000000000000000000000000000000000000000000001000000000000080000000000000000000000000040000000000000000000000000000000000000000000000040000000000000000000000000000800000000000000000000000000000000000100000000000000000000000000000000000000000000000000000000000000000000000000000000000000000000000000000100000000000004000000000008000000000002000000000000000000000000000000000000000000000000000000000000000000040000000000000000000000000000000000000000000000000000000000000000000",
      "type": "0x2",
      "transactionHash": "0xecd9ad0b04ae6a7cd48ac243cb89f3b60f7d3209bf8437f98158cb91cfa14f26",
      "transactionIndex": "0x7",
      "blockHash": "0x6166270f152fc771c7e6478559728b0acda07d294c1705a95d3c129b5c2f1423",
      "blockNumber": "0x1d369a4",
      "gasUsed": "0xccca",
      "effectiveGasPrice": "0x33ec5b0",
      "from": "0xba560d1320983bc9da64d3a14d0e912a4ce549a6",
      "to": "0xebcbe17db2be77c4627e3483ad0d33b0ea37978c",
      "contractAddress": null
    },
    {
      "status": "0x1",
      "cumulativeGasUsed": "0x41cd81",
      "logs": [
        {
          "address": "0xebcbe17db2be77c4627e3483ad0d33b0ea37978c",
          "topics": [
            "0x7486286e380836f9537a4f293a06e8427409946200887024b06174a1ca34b97b",
            "0x0000000000000000000000000000000000000000000000000000000000000001",
            "0x000000000000000000000000a0b86991c6218b36c1d19d4a2e9eb0ce3606eb48",
            "0x0000000000000000000000000000000000000000000000000000000000000001"
          ],
          "data": "0x",
          "blockHash": "0x6166270f152fc771c7e6478559728b0acda07d294c1705a95d3c129b5c2f1423",
          "blockNumber": "0x1d369a4",
          "blockTimestamp": "0x6a04b6d4",
          "transactionHash": "0xfacfe0e381cb376936132bfbf5d841deb9ff90881f80913fe1da88f83d3ae923",
          "transactionIndex": "0x8",
          "logIndex": "0xc",
          "removed": false
        }
      ],
      "logsBloom": "0x00000000000000000000000000000000000000000000000000000000000000000000000000000000000002000000000000000000000000000000000000040000000000000000000000000000000000000000000000040000000000000000000000000000000000000000000000000000000000000000100000000000000000000000000000000000000000000000400200000000000000000000000000000000000000000000000000000000000000004000000000008000000000000000000000000000000000000000000000000000000000000020000000000000000040000000000000000000000080000000000004000000000000000000000000000000",
      "type": "0x2",
      "transactionHash": "0xfacfe0e381cb376936132bfbf5d841deb9ff90881f80913fe1da88f83d3ae923",
      "transactionIndex": "0x8",
      "blockHash": "0x6166270f152fc771c7e6478559728b0acda07d294c1705a95d3c129b5c2f1423",
      "blockNumber": "0x1d369a4",
      "gasUsed": "0xcd22",
      "effectiveGasPrice": "0x33ec5b0",
      "from": "0xba560d1320983bc9da64d3a14d0e912a4ce549a6",
      "to": "0xebcbe17db2be77c4627e3483ad0d33b0ea37978c",
      "contractAddress": null
    }
  ],
  "libraries": [],
  "pending": [],
  "returns": {},
  "timestamp": 1778693866496,
  "chain": 59144,
  "commit": "86b8dff"
}