{
  "transactions": [
    {
      "hash": "0x149daf1ed82bd99f82cc16820dec2a4911282611803e01d7caa060047a367609",
      "transactionType": "CREATE",
      "contractName": "GasMeasurementContract",
      "contractAddress": "0x67e32078907d39b1245dbcf5ad31a02b474b9d4f",
      "function": null,
      "arguments": null,
      "transaction": {
        "from": "0xb0403b32f54d0bd752113f4009e8b534c6669f44",
        "gas": "0x40f33",
        "value": "0x0",
        "input": "0x608060405234801561001057600080fd5b506102bd806100206000396000f3fe608060405234801561001057600080fd5b506004361061002b5760003560e01c806305b15dd714610030575b600080fd5b61004361003e366004610164565b610067565b604080516001600160e01b0319909316835260208301919091520160405180910390f35b60008060005a604051630b135d3f60e11b81529091506001600160a01b03881690631626ba7e906100a0908990899089906004016101f9565b602060405180830381865afa1580156100bd573d6000803e3d6000fd5b505050506040513d601f19601f820116820180604052508101906100e1919061022f565b925060005a90506100f28183610260565b604080516001600160e01b0319871680825260208201849052630b135d3f60e11b149181018290529194509088906001600160a01b038b16907f22c472240e0f21969b8976296ea4f5dd040247a452ccc72f2138dba59ed966189060600160405180910390a350505094509492505050565b6000806000806060858703121561017a57600080fd5b84356001600160a01b038116811461019157600080fd5b935060208501359250604085013567ffffffffffffffff808211156101b557600080fd5b818701915087601f8301126101c957600080fd5b8135818111156101d857600080fd5b8860208285010111156101ea57600080fd5b95989497505060200194505050565b83815260406020820152816040820152818360608301376000818301606090810191909152601f909201601f1916010192915050565b60006020828403121561024157600080fd5b81516001600160e01b03198116811461025957600080fd5b9392505050565b8181038181111561028157634e487b7160e01b600052601160045260246000fd5b9291505056fea2646970667358221220dd528a03502f6f7bdc1c5c3a2a7ec61078221a9c60d9d5a9dee5fbfbf538f80c64736f6c63430008170033",
        "nonce": "0x93",
        "chainId": "0xaa36a7"
      },
      "additionalContracts": [],
      "isFixedGasLimit": false
    },
    {
      "hash": "0x77812346a5ed017ee09e9216f297cd645d1bec07e75fddc47305085d6856ee5b",
      "transactionType": "CALL",
      "contractName": "GasMeasurementContract",
      "contractAddress": "0x67e32078907d39b1245dbcf5ad31a02b474b9d4f",
      "function": "measureGas(address,bytes32,bytes)",
      "arguments": [
        "0x896996Ca94931Effe2818a89Bc27AaD89c87b0A7",
        "0x8c0b1eef198c5c9cbbbd9234586b1a50dfb0b4125761f68830bbc085c0016d02",
        "0x377e8c913442ea733e32c0dcfb183d3f6603195c77ed8219dfd82e79315484091a4107337fbe871d86dcbf711d1f0304b361aee5c86e7e0a2ba41b7eec63e20f1458ea389221e5109fb745de27ca807c6498502317b3325db2f091f1308b4e9c"
      ],
      "transaction": {
        "from": "0xb0403b32f54d0bd752113f4009e8b534c6669f44",
        "to": "0x67e32078907d39b1245dbcf5ad31a02b474b9d4f",
        "gas": "0x5a220",
        "value": "0x0",
        "input": "0x05b15dd7000000000000000000000000896996ca94931effe2818a89bc27aad89c87b0a78c0b1eef198c5c9cbbbd9234586b1a50dfb0b4125761f68830bbc085c0016d0200000000000000000000000000000000000000000000000000000000000000600000000000000000000000000000000000000000000000000000000000000060377e8c913442ea733e32c0dcfb183d3f6603195c77ed8219dfd82e79315484091a4107337fbe871d86dcbf711d1f0304b361aee5c86e7e0a2ba41b7eec63e20f1458ea389221e5109fb745de27ca807c6498502317b3325db2f091f1308b4e9c",
        "nonce": "0x94",
        "chainId": "0xaa36a7"
      },
      "additionalContracts": [],
      "isFixedGasLimit": false
    }
  ],
  "receipts": [
    {
      "status": "0x1",
      "cumulativeGasUsed": "0x1146c88",
      "logs": [],
      "logsBloom": "0x00000000000000000000000000000000000000000000000000000000000000000000000000000000000000000000000000000000000000000000000000000000000000000000000000000000000000000000000000000000000000000000000000000000000000000000000000000000000000000000000000000000000000000000000000000000000000000000000000000000000000000000000000000000000000000000000000000000000000000000000000000000000000000000000000000000000000000000000000000000000000000000000000000000000000000000000000000000000000000000000000000000000000000000000000000000",
      "type": "0x2",
      "transactionHash": "0x149daf1ed82bd99f82cc16820dec2a4911282611803e01d7caa060047a367609",
      "transactionIndex": "0x37",
      "blockHash": "0xed743f18f30e7e705ceef1dd787b2c346d3cfc92b81f180ded60fe972a24ca00",
      "blockNumber": "0x94e08b",
      "gasUsed": "0x31f91",
      "effectiveGasPrice": "0xf4248",
      "from": "0xb0403b32f54d0bd752113f4009e8b534c6669f44",
      "to": null,
      "contractAddress": "0x67e32078907d39b1245dbcf5ad31a02b474b9d4f"
    },
    {
      "status": "0x1",
      "cumulativeGasUsed": "0x12e68a8",
      "logs": [
        {
          "address": "0x67e32078907d39b1245dbcf5ad31a02b474b9d4f",
          "topics": [
            "0x22c472240e0f21969b8976296ea4f5dd040247a452ccc72f2138dba59ed96618",
            "0x000000000000000000000000896996ca94931effe2818a89bc27aad89c87b0a7",
            "0x8c0b1eef198c5c9cbbbd9234586b1a50dfb0b4125761f68830bbc085c0016d02"
          ],
          "data": "0x1626ba7e000000000000000000000000000000000000000000000000000000000000000000000000000000000000000000000000000000000000000000005ab40000000000000000000000000000000000000000000000000000000000000001",
          "blockHash": "0xed743f18f30e7e705ceef1dd787b2c346d3cfc92b81f180ded60fe972a24ca00",
          "blockNumber": "0x94e08b",
          "blockTimestamp": "0x692f9280",
          "transactionHash": "0x77812346a5ed017ee09e9216f297cd645d1bec07e75fddc47305085d6856ee5b",
          "transactionIndex": "0x4f",
          "logIndex": "0x1a6",
          "removed": false
        }
      ],
      "logsBloom": "0x00000000000010000000400000000000000000000000000000000000000000000000000000020000000000000000000000000000000000000000000080000000000000000000000000000000000000000000000000000000000000000000000000000000000000000000000000000000080000000000000000000400000000000000000000000000000000000000000000000010000000000000000000000000000000000000000000000000010000000000000000040000000000000000000000000000000000000000000000000000000000000000000000000000000010000000000000000000000000000000000000000000000000008002000000000000",
      "type": "0x2",
      "transactionHash": "0x77812346a5ed017ee09e9216f297cd645d1bec07e75fddc47305085d6856ee5b",
      "transactionIndex": "0x4f",
      "blockHash": "0xed743f18f30e7e705ceef1dd787b2c346d3cfc92b81f180ded60fe972a24ca00",
      "blockNumber": "0x94e08b",
      "gasUsed": "0xc388",
      "effectiveGasPrice": "0xf4248",
      "from": "0xb0403b32f54d0bd752113f4009e8b534c6669f44",
      "to": "0x67e32078907d39b1245dbcf5ad31a02b474b9d4f",
      "contractAddress": null
    }
  ],
  "libraries": [],
  "pending": [],
  "returns": {},
  "timestamp": 1764725376941,
  "chain": 11155111,
  "commit": "dbd1878"
}