{
  "transactions": [
    {
      "hash": "0xce416d293c8db9abafe89bbbedf46040f01e78e632a16c626cd820f292e03719",
      "transactionType": "CALL",
      "contractName": null,
      "contractAddress": "0x02a5cc4ed628e4ca9d31b6628d184ecc7a4503cd",
      "function": "measureGas(address,bytes32,bytes)",
      "arguments": [
        "0x931706Ece1D25E12B6dd087d0bbe5acAc59Aae5A",
        "0xd0884093dd7893d9bb626ec5a81b3fe55b288b8664fffea90109634f73557f69",
        "0x377e8c913442ea733e32c0dcfb183d3f6603195c77ed8219dfd82e79315484093748b20bf7bf53d8aff604cc57e79aea06c70ae121bcb1563f7aa3d22eb536322e9cae63761eef160e290612de38bf56ef13b866a69f8f29569148b3d1ab73b7"
      ],
      "transaction": {
        "from": "0xb0403b32f54d0bd752113f4009e8b534c6669f44",
        "to": "0x02a5cc4ed628e4ca9d31b6628d184ecc7a4503cd",
        "gas": "0x590d8",
        "value": "0x0",
        "input": "0x05b15dd7000000000000000000000000931706ece1d25e12b6dd087d0bbe5acac59aae5ad0884093dd7893d9bb626ec5a81b3fe55b288b8664fffea90109634f73557f6900000000000000000000000000000000000000000000000000000000000000600000000000000000000000000000000000000000000000000000000000000060377e8c913442ea733e32c0dcfb183d3f6603195c77ed8219dfd82e79315484093748b20bf7bf53d8aff604cc57e79aea06c70ae121bcb1563f7aa3d22eb536322e9cae63761eef160e290612de38bf56ef13b866a69f8f29569148b3d1ab73b7",
        "nonce": "0x36",
        "chainId": "0x1"
      },
      "additionalContracts": [],
      "isFixedGasLimit": false
    }
  ],
  "receipts": [
    {
      "status": "0x1",
      "cumulativeGasUsed": "0x2ba7469",
      "logs": [
        {
          "address": "0x02a5cc4ed628e4ca9d31b6628d184ecc7a4503cd",
          "topics": [
            "0x22c472240e0f21969b8976296ea4f5dd040247a452ccc72f2138dba59ed96618",
            "0x000000000000000000000000931706ece1d25e12b6dd087d0bbe5acac59aae5a",
            "0xd0884093dd7893d9bb626ec5a81b3fe55b288b8664fffea90109634f73557f69"
          ],
          "data": "0x1626ba7e000000000000000000000000000000000000000000000000000000000000000000000000000000000000000000000000000000000000000000005ab40000000000000000000000000000000000000000000000000000000000000001",
          "blockHash": "0x53f453e06771c319713912c1f018f3380b14464a9c1db9a9d7d0fb70bc5567db",
          "blockNumber": "0x16d3c79",
          "blockTimestamp": "0x6930c5f3",
          "transactionHash": "0xce416d293c8db9abafe89bbbedf46040f01e78e632a16c626cd820f292e03719",
          "transactionIndex": "0x1cb",
          "logIndex": "0x4ea",
          "removed": false
        }
      ],
      "logsBloom": "0x00000000000010000000000000000000000000000000000000000000000000000000000000010000000000000000000000000000000000000000000000000000000000000000000000000000000000000000000000000000000000000000000000004000000000000000000000000000000000000000000000000002000000000000000000200000000000000000000000000000000000000000000000040000000000000000200000000000000000000000000000000000000000000000800000000000000000000000000000000000000000000000000000000080000010000000000000000000000000000000000000000000000002000002000000000000",
      "type": "0x2",
      "transactionHash": "0xce416d293c8db9abafe89bbbedf46040f01e78e632a16c626cd820f292e03719",
      "transactionIndex": "0x1cb",
      "blockHash": "0x53f453e06771c319713912c1f018f3380b14464a9c1db9a9d7d0fb70bc5567db",
      "blockNumber": "0x16d3c79",
      "gasUsed": "0xc388",
      "effectiveGasPrice": "0x13c8fc1",
      "from": "0xb0403b32f54d0bd752113f4009e8b534c6669f44",
      "to": "0x02a5cc4ed628e4ca9d31b6628d184ecc7a4503cd",
      "contractAddress": null
    }
  ],
  "libraries": [],
  "pending": [],
  "returns": {},
  "timestamp": 1764804085214,
  "chain": 1,
  "commit": "dbd1878"
}