{
  "transactions": [
    {
      "hash": "0x5b6d69fe903b66b253419ee987be303f27949085a64d60624d9590a25f6828f5",
      "transactionType": "CREATE",
      "contractName": "GasMeasurementContract",
      "contractAddress": "0x02a5cc4ed628e4ca9d31b6628d184ecc7a4503cd",
      "function": null,
      "arguments": null,
      "transaction": {
        "from": "0xb0403b32f54d0bd752113f4009e8b534c6669f44",
        "gas": "0x40f33",
        "value": "0x0",
        "input": "0x608060405234801561001057600080fd5b506102bd806100206000396000f3fe608060405234801561001057600080fd5b506004361061002b5760003560e01c806305b15dd714610030575b600080fd5b61004361003e366004610164565b610067565b604080516001600160e01b0319909316835260208301919091520160405180910390f35b60008060005a604051630b135d3f60e11b81529091506001600160a01b03881690631626ba7e906100a0908990899089906004016101f9565b602060405180830381865afa1580156100bd573d6000803e3d6000fd5b505050506040513d601f19601f820116820180604052508101906100e1919061022f565b925060005a90506100f28183610260565b604080516001600160e01b0319871680825260208201849052630b135d3f60e11b149181018290529194509088906001600160a01b038b16907f22c472240e0f21969b8976296ea4f5dd040247a452ccc72f2138dba59ed966189060600160405180910390a350505094509492505050565b6000806000806060858703121561017a57600080fd5b84356001600160a01b038116811461019157600080fd5b935060208501359250604085013567ffffffffffffffff808211156101b557600080fd5b818701915087601f8301126101c957600080fd5b8135818111156101d857600080fd5b8860208285010111156101ea57600080fd5b95989497505060200194505050565b83815260406020820152816040820152818360608301376000818301606090810191909152601f909201601f1916010192915050565b60006020828403121561024157600080fd5b81516001600160e01b03198116811461025957600080fd5b9392505050565b8181038181111561028157634e487b7160e01b600052601160045260246000fd5b9291505056fea2646970667358221220dd528a03502f6f7bdc1c5c3a2a7ec61078221a9c60d9d5a9dee5fbfbf538f80c64736f6c63430008170033",
        "nonce": "0x34",
        "chainId": "0x1"
      },
      "additionalContracts": [],
      "isFixedGasLimit": false
    },
    {
      "hash": "0x1d114c3aad84ce803b51e77cde7f73ef3a4397ee35ad864bf1346fc68bb90866",
      "transactionType": "CALL",
      "contractName": "GasMeasurementContract",
      "contractAddress": "0x02a5cc4ed628e4ca9d31b6628d184ecc7a4503cd",
      "function": "measureGas(address,bytes32,bytes)",
      "arguments": [
        "0x931706Ece1D25E12B6dd087d0bbe5acAc59Aae5A",
        "0xd0884093dd7893d9bb626ec5a81b3fe55b288b8664fffea90109634f73557f69",
        "0x377e8c913442ea733e32c0dcfb183d3f6603195c77ed8219dfd82e79315484093748b20bf7bf53d8aff604cc57e79aea06c70ae121bcb1563f7aa3d22eb536322e9cae63761eef160e290612de38bf56ef13b866a69f8f29569148b3d1ab73b7"
      ],
      "transaction": {
        "from": "0xb0403b32f54d0bd752113f4009e8b534c6669f44",
        "to": "0x02a5cc4ed628e4ca9d31b6628d184ecc7a4503cd",
        "gas": "0x590d8",
        "value": "0x0",
        "input": "0x05b15dd7000000000000000000000000931706ece1d25e12b6dd087d0bbe5acac59aae5ad0884093dd7893d9bb626ec5a81b3fe55b288b8664fffea90109634f73557f6900000000000000000000000000000000000000000000000000000000000000600000000000000000000000000000000000000000000000000000000000000060377e8c913442ea733e32c0dcfb183d3f6603195c77ed8219dfd82e79315484093748b20bf7bf53d8aff604cc57e79aea06c70ae121bcb1563f7aa3d22eb536322e9cae63761eef160e290612de38bf56ef13b866a69f8f29569148b3d1ab73b7",
        "nonce": "0x35",
        "chainId": "0x1"
      },
      "additionalContracts": [],
      "isFixedGasLimit": false
    }
  ],
  "receipts": [
    {
      "status": "0x1",
      "cumulativeGasUsed": "0x2a9c56c",
      "logs": [],
      "logsBloom": "0x00000000000000000000000000000000000000000000000000000000000000000000000000000000000000000000000000000000000000000000000000000000000000000000000000000000000000000000000000000000000000000000000000000000000000000000000000000000000000000000000000000000000000000000000000000000000000000000000000000000000000000000000000000000000000000000000000000000000000000000000000000000000000000000000000000000000000000000000000000000000000000000000000000000000000000000000000000000000000000000000000000000000000000000000000000000",
      "type": "0x2",
      "transactionHash": "0x1d114c3aad84ce803b51e77cde7f73ef3a4397ee35ad864bf1346fc68bb90866",
      "transactionIndex": "0x155",
      "blockHash": "0xcfe54a978d558dfbc2812ff853afb8c0eed15580f5709615f120520b0d4ce4c5",
      "blockNumber": "0x16d23ca",
      "gasUsed": "0x31f91",
      "effectiveGasPrice": "0x22957c9",
      "from": "0xb0403b32f54d0bd752113f4009e8b534c6669f44",
      "to": null,
      "contractAddress": "0x02a5cc4ed628e4ca9d31b6628d184ecc7a4503cd"
    },
    {
      "status": "0x1",
      "cumulativeGasUsed": "0x15b4c25",
      "logs": [
        {
          "address": "0x02a5cc4ed628e4ca9d31b6628d184ecc7a4503cd",
          "topics": [
            "0x22c472240e0f21969b8976296ea4f5dd040247a452ccc72f2138dba59ed96618",
            "0x000000000000000000000000931706ece1d25e12b6dd087d0bbe5acac59aae5a",
            "0xd0884093dd7893d9bb626ec5a81b3fe55b288b8664fffea90109634f73557f69"
          ],
          "data": "0x1626ba7e00000000000000000000000000000000000000000000000000000000000000000000000000000000000000000000000000000000000000000003656d0000000000000000000000000000000000000000000000000000000000000001",
          "blockHash": "0xce32fc43fa2eec4f75abbb93dc7afd61cd6a12702865045206ed6209956f663b",
          "blockNumber": "0x16d23cb",
          "blockTimestamp": "0x692f9987",
          "transactionHash": "0x5b6d69fe903b66b253419ee987be303f27949085a64d60624d9590a25f6828f5",
          "transactionIndex": "0xd0",
          "logIndex": "0x221",
          "removed": false
        }
      ],
      "logsBloom": "0x00000000000010000000000000000000000000000000000000000000000000000000000000010000000000000000000000000000000000000000000000000000000000000000000000000000000000000000000000000000000000000000000000004000000000000000000000000000000000000000000000000002000000000000000000200000000000000000000000000000000000000000000000040000000000000000200000000000000000000000000000000000000000000000800000000000000000000000000000000000000000000000000000000080000010000000000000000000000000000000000000000000000002000002000000000000",
      "type": "0x2",
      "transactionHash": "0x5b6d69fe903b66b253419ee987be303f27949085a64d60624d9590a25f6828f5",
      "transactionIndex": "0xd0",
      "blockHash": "0xce32fc43fa2eec4f75abbb93dc7afd61cd6a12702865045206ed6209956f663b",
      "blockNumber": "0x16d23cb",
      "gasUsed": "0x3ce41",
      "effectiveGasPrice": "0x256214d",
      "from": "0xb0403b32f54d0bd752113f4009e8b534c6669f44",
      "to": "0x02a5cc4ed628e4ca9d31b6628d184ecc7a4503cd",
      "contractAddress": null
    }
  ],
  "libraries": [],
  "pending": [],
  "returns": {},
  "timestamp": 1764727178570,
  "chain": 1,
  "commit": "dbd1878"
}