{
  "transactions": [
    {
      "hash": "0xdcab97aba8be4b9c38e2f6a6650db0eba81b7156c1159216ef8c812c71e4ca1a",
      "transactionType": "CREATE2",
      "contractName": "DelegationMetaSwapAdapter",
      "contractAddress": "0xbb56322416a4e3c1f64eb4ace298cce9fd376d35",
      "function": null,
      "arguments": [
        "0xbA560d1320983bC9Da64d3A14d0E912A4cE549a6",
        "0xbA560d1320983bC9Da64d3A14d0E912A4cE549a6",
        "0xdb9B1e94B5b69Df7e401DDbedE43491141047dB3",
        "0x9dDA6Ef3D919c9bC8885D5560999A3640431e8e6",
        "0xe5D7C2a44FfDDf6b295A15c148167daaAf5Cf34f"
      ],
      "transaction": {
        "from": "0xba560d1320983bc9da64d3a14d0e912a4ce549a6",
        "to": "0x4e59b44847b379578588920ca78fbf26c0b4956c",
        "gas": "0x2f8c09",
        "value": "0x0",
        "input": "0x545245415355525900000000000000000000000000000000000000000000000060e06040523480156200001157600080fd5b506040516200293838038062002938833981016040819052620000349162000229565b846001600160a01b0381166200006457604051631e4fbdf760e01b81526000600482015260240160405180910390fd5b6200006f81620001a5565b5060016002556001600160a01b03841615806200009357506001600160a01b038316155b80620000a657506001600160a01b038216155b80620000b957506001600160a01b038116155b15620000d85760405163f6b2911f60e01b815260040160405180910390fd5b600380546001600160a01b0319166001600160a01b0386811691821790925584821660805283821660a05290821660c0526040517fdeeca532e75e413fdd750935f0d28d3686b7e2074831c42f70db2ca0dc7b32d090600090a26040516001600160a01b038416907fb2e8eb88b584ae71ef4e854c10847f4d39bd93e52599f147bfb4dcc8de52014d90600090a26040516001600160a01b038316907f5a3c783d657606d324917524307587fd272edc5e8b257da020bb6072226b6b2c90600090a25050505050620002a9565b600180546001600160a01b0319169055620001c081620001c3565b50565b600080546001600160a01b038381166001600160a01b0319831681178455604051919092169283917f8be0079c531659141344cd1fd0a4f28419497f9722a3daafe3b4186f6b6457e09190a35050565b6001600160a01b0381168114620001c057600080fd5b600080600080600060a086880312156200024257600080fd5b85516200024f8162000213565b6020870151909550620002628162000213565b6040870151909450620002758162000213565b6060870151909350620002888162000213565b60808701519092506200029b8162000213565b809150509295509295909350565b60805160a05160c05161263c620002fc600039600081816101ea0152611482015260008181610338015281816113030152818161139301526113cb01526000818161038a015261082f015261263c6000f3fe6080604052600436106101025760003560e01c8063780c153811610095578063a97effbb11610064578063a97effbb14610306578063cb2ef5fe14610326578063e30c39781461035a578063ea4d3c9b14610378578063f2fde38b146103ac57600080fd5b8063780c15381461026157806378aeea7f1461028157806379ba5097146102d35780638da5cb5b146102e857600080fd5b80633fc8cef3116100d15780633fc8cef3146101d857806367ebd8a21461020c57806369328dec1461022c578063715018a61461024c57600080fd5b8063059ba4ee1461010e5780631036bbe21461014b578063150ddc34146101765780632a0a7dcb146101b657600080fd5b3661010957005b600080fd5b34801561011a57600080fd5b5060035461012e906001600160a01b031681565b6040516001600160a01b0390911681526020015b60405180910390f35b34801561015757600080fd5b5061016868056bc75e2d6310000081565b604051908152602001610142565b34801561018257600080fd5b506101a6610191366004611ac2565b60046020526000908152604090205460ff1681565b6040519015158152602001610142565b3480156101c257600080fd5b506101d66101d1366004611b2b565b6103cc565b005b3480156101e457600080fd5b5061012e7f000000000000000000000000000000000000000000000000000000000000000081565b34801561021857600080fd5b506101d6610227366004611ac2565b6104e0565b34801561023857600080fd5b506101d6610247366004611b97565b610559565b34801561025857600080fd5b506101d6610571565b34801561026d57600080fd5b506101d661027c366004611bd9565b610585565b34801561028d57600080fd5b506102a161029c366004611c4a565b6108be565b6040805182516001600160801b0390811682526020808501519091169082015291810151151590820152606001610142565b3480156102df57600080fd5b506101d661096c565b3480156102f457600080fd5b506000546001600160a01b031661012e565b34801561031257600080fd5b506101d6610321366004611c83565b6109b5565b34801561033257600080fd5b5061012e7f000000000000000000000000000000000000000000000000000000000000000081565b34801561036657600080fd5b506001546001600160a01b031661012e565b34801561038457600080fd5b5061012e7f000000000000000000000000000000000000000000000000000000000000000081565b3480156103b857600080fd5b506101d66103c7366004611ac2565b610bb5565b6103d4610c26565b828181146103f557604051637e26301b60e11b815260040160405180910390fd5b60005b818110156104d857600086868381811061041457610414611cf8565b90506020020160208101906104299190611ac2565b9050600085858481811061043f5761043f611cf8565b90506020020160208101906104549190611d1c565b6001600160a01b03831660009081526004602052604090205490915060ff161515811515146104ce576001600160a01b038216600081815260046020526040808220805460ff191685151590811790915590519092917fe4c0229512bf8f95820cb6c77daf50e732d16748510f9339a7ad67f6acc78faa91a35b50506001016103f8565b505050505050565b6104e8610c26565b6001600160a01b03811661050f5760405163f6b2911f60e01b815260040160405180910390fd5b600380546001600160a01b0319166001600160a01b0383169081179091556040517fdeeca532e75e413fdd750935f0d28d3686b7e2074831c42f70db2ca0dc7b32d090600090a250565b610561610c26565b61056c838383610c53565b505050565b610579610c26565b6105836000610d4c565b565b3360009081526004602052604090205460ff166105b55760405163015783e960e51b815260040160405180910390fd5b6105bd610d65565b8060008190036105e05760405163478bfa6560e01b815260040160405180910390fd5b6105e984610d8d565b6000808080806106016105fc8a80611d39565b610eb0565b9450945094509450945061061f84848b604001358c60600135611048565b6000610668898961063160018b611d96565b81811061064057610640611cf8565b90506020028101906106529190611da9565b610663906040810190602001611ac2565b611116565b90506000610675866111cc565b60408051600180825281830190925291925060009190816020015b60608152602001906001900390816106905790505090508a8a6040516020016106ba929190611f58565b604051602081830303815290604052816000815181106106dc576106dc611cf8565b602090810291909101015260408051600180825281830190925260009181602001602082028036833701905050905061071361124b565b8160008151811061072657610726611cf8565b6020908102919091010152604080516001808252818301909252600091816020015b60608152602001906001900390816107485790505090506001600160a01b0389166107aa5761078730886040518060200160405280600081525061125e565b8160008151811061079a5761079a611cf8565b6020026020010181905250610818565b6040513060248201526044810188905260009060640160408051601f198184030181529190526020810180516001600160e01b031663a9059cbb60e01b17905290506107f88a60008361125e565b8260008151811061080b5761080b611cf8565b6020026020010181905250505b60405163cef6d20960e01b81526001600160a01b037f0000000000000000000000000000000000000000000000000000000000000000169063cef6d20990610868908690869086906004016120f5565b600060405180830381600087803b15801561088257600080fd5b505af1158015610896573d6000803e3d6000fd5b505050506108a98a8a8a888b898c61128d565b505050505050505050505061056c6001600255565b6040805160608101825260008082526020820181905291810191909152600560006108e88561147e565b6001600160a01b03166001600160a01b0316815260200190815260200160002060006109138461147e565b6001600160a01b031681526020808201929092526040908101600020815160608101835281546001600160801b038082168352600160801b90910416938101939093526001015460ff1615159082015290505b92915050565b60015433906001600160a01b031681146109a95760405163118cdaa760e01b81526001600160a01b03821660048201526024015b60405180910390fd5b6109b281610d4c565b50565b6109bd610c26565b8060005b81811015610baf57368484838181106109dc576109dc611cf8565b60a002919091019150600090506109fe6109f96020840184611ac2565b61147e565b90506000610a156109f96040850160208601611ac2565b9050806001600160a01b0316826001600160a01b031603610a4957604051634e570e4560e01b815260040160405180910390fd5b68056bc75e2d63100000610a636060850160408601612174565b6001600160801b03161115610aa757610a826060840160408501612174565b6040516307914b9f60e51b81526001600160801b0390911660048201526024016109a0565b68056bc75e2d63100000610ac16080850160608601612174565b6001600160801b03161115610ae057610a826080840160608501612174565b6001600160a01b038083166000908152600560209081526040808320938516835292905281902090840190610b158282612191565b50506001600160a01b038082169083167fb7da178654b6036198c898f864a89bbc594778a33428b2544ca3872d19b92bad610b566060870160408801612174565b610b666080880160608901612174565b610b7660a0890160808a01611d1c565b604080516001600160801b03948516815293909216602084015215159082015260600160405180910390a38360010193505050506109c1565b50505050565b610bbd610c26565b600180546001600160a01b0383166001600160a01b03199091168117909155610bee6000546001600160a01b031690565b6001600160a01b03167f38d16b8cac22d99fc7c124b9cd0de2d3fa1faef420bfe791d8c362d765e2270060405160405180910390a350565b6000546001600160a01b031633146105835760405163118cdaa760e01b81523360048201526024016109a0565b6001600160a01b038316610ce6576000816001600160a01b03168360405160006040518083038185875af1925050503d8060008114610cae576040519150601f19603f3d011682016040523d82523d6000602084013e610cb3565b606091505b5050905080610ce0576040516312988bef60e21b81526001600160a01b03831660048201526024016109a0565b50610cfa565b610cfa6001600160a01b03841682846114c7565b806001600160a01b0316836001600160a01b03167f2c42af0ac449800f98313b961b8c9e7d69c3065be5b86449ed4c358e01d3a78084604051610d3f91815260200190565b60405180910390a3505050565b600180546001600160a01b03191690556109b281611526565b6002805403610d8757604051633ee5aeb560e01b815260040160405180910390fd5b60028055565b80602001354210610db157604051630819bdcd60e01b815260040160405180910390fd5b6000610dbd8280611d39565b836020013584604001358560600135604051602001610de09594939291906121f6565b6040516020818303038152906040528051906020012090506000610e31827f19457468657265756d205369676e6564204d6573736167653a0a3332000000006000908152601c91909152603c902090565b90506000610e8082610e466080870187611d39565b8080601f01602080910402602001604051908101604052809392919081815260200183838082843760009201919091525061157692505050565b6003549091506001600160a01b03808316911614610baf57604051626d46e960e31b815260040160405180910390fd5b6060600080808381610ec5600482898b612227565b610ece91612251565b90506001600160e01b03198116635f57552960e01b14610f0157604051632033702760e11b815260040160405180910390fd5b6000610f10886004818c612227565b8080601f016020809104026020016040519081016040528093929190818152602001838380828437600092019190915250508251929350610f5d9284016020908101925084019050612315565b60408051600060208201819052959c50939a50919750955082918291829182910160408051601f1981840301815290829052610f9d918a906020016123ad565b604051602081830303815290604052806020019051810190610fbf91906123dc565b98505097505050955095509550508a6001600160a01b0316856001600160a01b031614610fff576040516356cf902d60e01b815260040160405180910390fd5b80158015611016575088611013848461249b565b14155b1561103457604051632f0e599760e11b815260040160405180910390fd5b839950505050505050509295509295909350565b600061105485856108be565b9050806040015161108b57604051638976cb9560e01b81526001600160a01b038087166004830152851660248201526044016109a0565b6000831380156110a4575080516001600160801b031683115b156110ca578051604051631dc78a9360e11b81526109a0918791879187916004016124ae565b6000821380156110e6575080602001516001600160801b031682115b1561110f576020810151604051632f6df2d560e11b81526109a0918791879186916004016124ae565b5050505050565b6000816001600160a01b031663186f03546040518163ffffffff1660e01b8152600401602060405180830381865afa925050508015611172575060408051601f3d908101601f1916820190925261116f918101906124df565b60015b61119a57604051635ffc2f0f60e01b81526001600160a01b03831660048201526024016109a0565b6001600160a01b03811661096657604051635ffc2f0f60e01b81526001600160a01b03841660048201526024016109a0565b60006001600160a01b0382166111e3575047919050565b6040516370a0823160e01b81523060048201526001600160a01b038316906370a0823190602401602060405180830381865afa158015611227573d6000803e3d6000fd5b505050506040513d601f19601f8201168201806040525081019061096691906124fc565b6000611259818080806115a0565b905090565b606083838360405160200161127593929190612515565b60405160208183030381529060405290509392505050565b600082611299886111cc565b6112a39190611d96565b90508381146112cf57604051637bd53e7b60e01b815260048101859052602481018290526044016109a0565b60006001600160a01b0388166112e65750836113bc565b604051636eb1769f60e11b81523060048201526001600160a01b037f000000000000000000000000000000000000000000000000000000000000000081166024830152600091908a169063dd62ed3e90604401602060405180830381865afa158015611356573d6000803e3d6000fd5b505050506040513d601f19601f8201168201806040525081019061137a91906124fc565b9050858110156113ba576113ba6001600160a01b038a167f000000000000000000000000000000000000000000000000000000000000000060001961160b565b505b60006113c7886111cc565b90507f00000000000000000000000000000000000000000000000000000000000000006001600160a01b0316635f575529838c8c8a896040518663ffffffff1660e01b815260040161141c9493929190612554565b6000604051808303818588803b15801561143557600080fd5b505af1158015611449573d6000803e3d6000fd5b505050505060008161145a8a6111cc565b6114649190611d96565b905061147189828a610c53565b5050505050505050505050565b60007f00000000000000000000000000000000000000000000000000000000000000006001600160a01b0316826001600160a01b0316146114bf5781610966565b600092915050565b6040516001600160a01b0383811660248301526044820183905261056c91859182169063a9059cbb906064015b604051602081830303815290604052915060e01b6020820180516001600160e01b038381831617835250505050611697565b600080546001600160a01b038381166001600160a01b0319831681178455604051919092169283917f8be0079c531659141344cd1fd0a4f28419497f9722a3daafe3b4186f6b6457e09190a35050565b60008060008061158686866116fa565b9250925092506115968282611747565b5090949350505050565b604080516001600160f81b03198087166020830152851660218201526000602282018190526001600160e01b03198516602683015269ffffffffffffffffffff198416602a83015291016040516020818303038152906040526116029061259a565b95945050505050565b604080516001600160a01b038416602482015260448082018490528251808303909101815260649091019091526020810180516001600160e01b031663095ea7b360e01b17905261165c8482611804565b610baf576040516001600160a01b0384811660248301526000604483015261169191869182169063095ea7b3906064016114f4565b610baf84825b60006116ac6001600160a01b038416836118a7565b905080516000141580156116d15750808060200190518101906116cf91906125c1565b155b1561056c57604051635274afe760e01b81526001600160a01b03841660048201526024016109a0565b600080600083516041036117345760208401516040850151606086015160001a611726888285856118bc565b955095509550505050611740565b50508151600091506002905b9250925092565b600082600381111561175b5761175b6125de565b03611764575050565b6001826003811115611778576117786125de565b036117965760405163f645eedf60e01b815260040160405180910390fd5b60028260038111156117aa576117aa6125de565b036117cb5760405163fce698f760e01b8152600481018290526024016109a0565b60038260038111156117df576117df6125de565b03611800576040516335e2f38360e21b8152600481018290526024016109a0565b5050565b6000806000846001600160a01b03168460405161182191906125f4565b6000604051808303816000865af19150503d806000811461185e576040519150601f19603f3d011682016040523d82523d6000602084013e611863565b606091505b509150915081801561188d57508051158061188d57508080602001905181019061188d91906125c1565b80156116025750505050506001600160a01b03163b151590565b60606118b58383600061198b565b9392505050565b600080807f7fffffffffffffffffffffffffffffff5d576e7357a4501ddfe92f46681b20a08411156118f75750600091506003905082611981565b604080516000808252602082018084528a905260ff891692820192909252606081018790526080810186905260019060a0016020604051602081039080840390855afa15801561194b573d6000803e3d6000fd5b5050604051601f1901519150506001600160a01b03811661197757506000925060019150829050611981565b9250600091508190505b9450945094915050565b6060814710156119b05760405163cd78605960e01b81523060048201526024016109a0565b600080856001600160a01b031684866040516119cc91906125f4565b60006040518083038185875af1925050503d8060008114611a09576040519150601f19603f3d011682016040523d82523d6000602084013e611a0e565b606091505b5091509150611a1e868383611a28565b9695505050505050565b606082611a3d57611a3882611a84565b6118b5565b8151158015611a5457506001600160a01b0384163b155b15611a7d57604051639996b31560e01b81526001600160a01b03851660048201526024016109a0565b50806118b5565b805115611a945780518082602001fd5b604051630a12f52160e11b815260040160405180910390fd5b6001600160a01b03811681146109b257600080fd5b600060208284031215611ad457600080fd5b81356118b581611aad565b60008083601f840112611af157600080fd5b50813567ffffffffffffffff811115611b0957600080fd5b6020830191508360208260051b8501011115611b2457600080fd5b9250929050565b60008060008060408587031215611b4157600080fd5b843567ffffffffffffffff80821115611b5957600080fd5b611b6588838901611adf565b90965094506020870135915080821115611b7e57600080fd5b50611b8b87828801611adf565b95989497509550505050565b600080600060608486031215611bac57600080fd5b8335611bb781611aad565b9250602084013591506040840135611bce81611aad565b809150509250925092565b600080600060408486031215611bee57600080fd5b833567ffffffffffffffff80821115611c0657600080fd5b9085019060a08288031215611c1a57600080fd5b90935060208501359080821115611c3057600080fd5b50611c3d86828701611adf565b9497909650939450505050565b60008060408385031215611c5d57600080fd5b8235611c6881611aad565b91506020830135611c7881611aad565b809150509250929050565b60008060208385031215611c9657600080fd5b823567ffffffffffffffff80821115611cae57600080fd5b818501915085601f830112611cc257600080fd5b813581811115611cd157600080fd5b86602060a083028501011115611ce657600080fd5b60209290920196919550909350505050565b634e487b7160e01b600052603260045260246000fd5b80151581146109b257600080fd5b600060208284031215611d2e57600080fd5b81356118b581611d0e565b6000808335601e19843603018112611d5057600080fd5b83018035915067ffffffffffffffff821115611d6b57600080fd5b602001915036819003821315611b2457600080fd5b634e487b7160e01b600052601160045260246000fd5b8181038181111561096657610966611d80565b6000823560be19833603018112611dbf57600080fd5b9190910192915050565b634e487b7160e01b600052604160045260246000fd5b6000808335601e19843603018112611df657600080fd5b830160208101925035905067ffffffffffffffff811115611e1657600080fd5b8060051b3603821315611b2457600080fd5b6000808335601e19843603018112611e3f57600080fd5b830160208101925035905067ffffffffffffffff811115611e5f57600080fd5b803603821315611b2457600080fd5b81835281816020850137506000828201602090810191909152601f909101601f19169091010190565b60008383855260208086019550808560051b830101846000805b88811015611f4a57858403601f19018a52823536899003605e19018112611ed6578283fd5b880160608135611ee581611aad565b6001600160a01b03168652611efc82880183611e28565b8289890152611f0e8389018284611e6e565b925050506040611f2081840184611e28565b935087830382890152611f34838583611e6e565b9d89019d97505050938601935050600101611eb1565b509198975050505050505050565b60208082528181018390526000906040808401600586901b850182018785805b8981101561203c57888403603f190185528235368c900360be19018112611f9d578283fd5b8b0160c08135611fac81611aad565b6001600160a01b039081168752828a013590611fc782611aad565b16868a015281880135888701526060611fe281840184611ddf565b83838a0152611ff4848a018284611e97565b9350505050608080830135818801525060a061201281840184611e28565b935087830382890152612026838583611e6e565b988b019897505050938801935050600101611f78565b50919998505050505050505050565b60005b8381101561206657818101518382015260200161204e565b50506000910152565b6000815180845261208781602086016020860161204b565b601f01601f19169290920160200192915050565b60008282518085526020808601955060208260051b8401016020860160005b848110156120e857601f198684030189526120d683835161206f565b988401989250908301906001016120ba565b5090979650505050505050565b606081526000612108606083018661209b565b82810360208481019190915285518083528682019282019060005b8181101561213f57845183529383019391830191600101612123565b50508481036040860152612153818761209b565b98975050505050505050565b6001600160801b03811681146109b257600080fd5b60006020828403121561218657600080fd5b81356118b58161215f565b813561219c8161215f565b6001600160801b03811690506001600160801b0319818184541617835560208401356121c78161215f565b60801b161781556001810160408301356121e081611d0e565b815490151560ff1660ff19919091161790555050565b60808152600061220a608083018789611e6e565b602083019590955250604081019290925260609091015292915050565b6000808585111561223757600080fd5b8386111561224457600080fd5b5050820193919092039150565b6001600160e01b031981358181169160048510156122795780818660040360031b1b83161692505b505092915050565b600067ffffffffffffffff8084111561229c5761229c611dc9565b604051601f8501601f19908116603f011681019082821181831017156122c4576122c4611dc9565b816040528093508581528686860111156122dd57600080fd5b6122eb86602083018761204b565b5050509392505050565b600082601f83011261230657600080fd5b6118b583835160208501612281565b6000806000806080858703121561232b57600080fd5b845167ffffffffffffffff8082111561234357600080fd5b818701915087601f83011261235757600080fd5b61236688835160208501612281565b95506020870151915061237882611aad565b6040870151606088015192955093508082111561239457600080fd5b506123a1878288016122f5565b91505092959194509250565b600083516123bf81846020880161204b565b8351908301906123d381836020880161204b565b01949350505050565b60008060008060008060008060006101208a8c0312156123fb57600080fd5b895161240681611aad565b60208b015190995061241781611aad565b60408b015190985061242881611aad565b8097505060608a0151955060808a0151945060a08a015167ffffffffffffffff81111561245457600080fd5b6124608c828d016122f5565b94505060c08a0151925060e08a015161247881611aad565b6101008b015190925061248a81611d0e565b809150509295985092959850929598565b8082018082111561096657610966611d80565b6001600160a01b03948516815292909316602083015260408201526001600160801b03909116606082015260800190565b6000602082840312156124f157600080fd5b81516118b581611aad565b60006020828403121561250e57600080fd5b5051919050565b6bffffffffffffffffffffffff198460601b1681528260148201526000825161254581603485016020870161204b565b91909101603401949350505050565b608081526000612567608083018761206f565b6001600160a01b038616602084015260408301859052828103606084015261258f818561206f565b979650505050505050565b805160208083015191908110156125bb576000198160200360031b1b821691505b50919050565b6000602082840312156125d357600080fd5b81516118b581611d0e565b634e487b7160e01b600052602160045260246000fd5b60008251611dbf81846020870161204b56fea26469706673582212202d4d03c98954f8ec6ff046e2ef0f08e9e9bdebec27ce23f0660f9f32a39da11064736f6c63430008170033000000000000000000000000ba560d1320983bc9da64d3a14d0e912a4ce549a6000000000000000000000000ba560d1320983bc9da64d3a14d0e912a4ce549a6000000000000000000000000db9b1e94b5b69df7e401ddbede43491141047db30000000000000000000000009dda6ef3d919c9bc8885d5560999a3640431e8e6000000000000000000000000e5d7c2a44ffddf6b295a15c148167daaaf5cf34f",
        "nonce": "0x18",
        "chainId": "0xe708"
      },
      "additionalContracts": [],
      "isFixedGasLimit": false
    },
    {
      "hash": "0xd2daa92e32878c8d2baa202d641e39582e0eca15c2250c7741aa70ade4d51cd8",
      "transactionType": "CALL",
      "contractName": "DelegationMetaSwapAdapter",
      "contractAddress": "0xbb56322416a4e3c1f64eb4ace298cce9fd376d35",
      "function": "updateAllowedCallers(address[],bool[])",
      "arguments": [
        "[0x8BfEB19507eec4C597538e0444253501166081De]",
        "[true]"
      ],
      "transaction": {
        "from": "0xba560d1320983bc9da64d3a14d0e912a4ce549a6",
        "to": "0xbb56322416a4e3c1f64eb4ace298cce9fd376d35",
        "gas": "0x10b9b",
        "value": "0x0",
        "input": "0x2a0a7dcb0000000000000000000000000000000000000000000000000000000000000040000000000000000000000000000000000000000000000000000000000000008000000000000000000000000000000000000000000000000000000000000000010000000000000000000000008bfeb19507eec4c597538e0444253501166081de00000000000000000000000000000000000000000000000000000000000000010000000000000000000000000000000000000000000000000000000000000001",
        "nonce": "0x19",
        "chainId": "0xe708"
      },
      "additionalContracts": [],
      "isFixedGasLimit": false
    },
    {
      "hash": "0xade98eb8110615fb0b74d955c36594e88a801b613c7c1b219714b6aef9245500",
      "transactionType": "CALL",
      "contractName": "DelegationMetaSwapAdapter",
      "contractAddress": "0xbb56322416a4e3c1f64eb4ace298cce9fd376d35",
      "function": "setPairLimits((address,address,(uint128,uint128,bool))[])",
      "arguments": [
        "[(0x0000000000000000000000000000000000000000, 0x176211869cA2b568f2A7D4EE941E073a821EE1ff, (1000000000000000000, 750000000000000000, true)), (0x176211869cA2b568f2A7D4EE941E073a821EE1ff, 0x0000000000000000000000000000000000000000, (1000000000000000000, 750000000000000000, true)), (0xA219439258ca9da29E9Cc4cE5596924745e12B93, 0x176211869cA2b568f2A7D4EE941E073a821EE1ff, (500000000000000000, 250000000000000000, true)), (0xA219439258ca9da29E9Cc4cE5596924745e12B93, 0x0000000000000000000000000000000000000000, (1250000000000000000, 1000000000000000000, true)), (0x4AF15ec2A0BD43Db75dd04E62FAA3B8EF36b00d5, 0x176211869cA2b568f2A7D4EE941E073a821EE1ff, (1500000000000000000, 1000000000000000000, true)), (0x4AF15ec2A0BD43Db75dd04E62FAA3B8EF36b00d5, 0x0000000000000000000000000000000000000000, (2000000000000000000, 1500000000000000000, true)), (0x3aAB2285ddcDdaD8edf438C1bAB47e1a9D05a9b4, 0x0000000000000000000000000000000000000000, (1250000000000000000, 1000000000000000000, true)), (0x3aAB2285ddcDdaD8edf438C1bAB47e1a9D05a9b4, 0x176211869cA2b568f2A7D4EE941E073a821EE1ff, (2000000000000000000, 1500000000000000000, true))]"
      ],
      "transaction": {
        "from": "0xba560d1320983bc9da64d3a14d0e912a4ce549a6",
        "to": "0xbb56322416a4e3c1f64eb4ace298cce9fd376d35",
        "gas": "0x8f1aa",
        "value": "0x0",
        "input": "0xa97effbb000000000000000000000000000000000000000000000000000000000000002000000000000000000000000000000000000000000000000000000000000000080000000000000000000000000000000000000000000000000000000000000000000000000000000000000000176211869ca2b568f2a7d4ee941e073a821ee1ff0000000000000000000000000000000000000000000000000de0b6b3a76400000000000000000000000000000000000000000000000000000a688906bd8b00000000000000000000000000000000000000000000000000000000000000000001000000000000000000000000176211869ca2b568f2a7d4ee941e073a821ee1ff00000000000000000000000000000000000000000000000000000000000000000000000000000000000000000000000000000000000000000de0b6b3a76400000000000000000000000000000000000000000000000000000a688906bd8b00000000000000000000000000000000000000000000000000000000000000000001000000000000000000000000a219439258ca9da29e9cc4ce5596924745e12b93000000000000000000000000176211869ca2b568f2a7d4ee941e073a821ee1ff00000000000000000000000000000000000000000000000006f05b59d3b2000000000000000000000000000000000000000000000000000003782dace9d900000000000000000000000000000000000000000000000000000000000000000001000000000000000000000000a219439258ca9da29e9cc4ce5596924745e12b9300000000000000000000000000000000000000000000000000000000000000000000000000000000000000000000000000000000000000001158e460913d00000000000000000000000000000000000000000000000000000de0b6b3a764000000000000000000000000000000000000000000000000000000000000000000010000000000000000000000004af15ec2a0bd43db75dd04e62faa3b8ef36b00d5000000000000000000000000176211869ca2b568f2a7d4ee941e073a821ee1ff00000000000000000000000000000000000000000000000014d1120d7b1600000000000000000000000000000000000000000000000000000de0b6b3a764000000000000000000000000000000000000000000000000000000000000000000010000000000000000000000004af15ec2a0bd43db75dd04e62faa3b8ef36b00d500000000000000000000000000000000000000000000000000000000000000000000000000000000000000000000000000000000000000001bc16d674ec8000000000000000000000000000000000000000000000000000014d1120d7b16000000000000000000000000000000000000000000000000000000000000000000010000000000000000000000003aab2285ddcddad8edf438c1bab47e1a9d05a9b400000000000000000000000000000000000000000000000000000000000000000000000000000000000000000000000000000000000000001158e460913d00000000000000000000000000000000000000000000000000000de0b6b3a764000000000000000000000000000000000000000000000000000000000000000000010000000000000000000000003aab2285ddcddad8edf438c1bab47e1a9d05a9b4000000000000000000000000176211869ca2b568f2a7d4ee941e073a821ee1ff0000000000000000000000000000000000000000000000001bc16d674ec8000000000000000000000000000000000000000000000000000014d1120d7b1600000000000000000000000000000000000000000000000000000000000000000001",
        "nonce": "0x1a",
        "chainId": "0xe708"
      },
      "additionalContracts": [],
      "isFixedGasLimit": false
    }
  ],
  "receipts": [
    {
      "status": "0x1",
      "cumulativeGasUsed": "0x226ef4",
      "logs": [
        {
          "address": "0xbb56322416a4e3c1f64eb4ace298cce9fd376d35",
          "topics": [
            "0x8be0079c531659141344cd1fd0a4f28419497f9722a3daafe3b4186f6b6457e0",
            "0x0000000000000000000000000000000000000000000000000000000000000000",
            "0x000000000000000000000000ba560d1320983bc9da64d3a14d0e912a4ce549a6"
          ],
          "data": "0x",
          "blockHash": "0x1471c5744fb923dcfb98a5ce26f8488fe47a16414456fc159f7e3c2bfd67fbbf",
          "blockNumber": "0x1cef7d2",
          "blockTimestamp": "0x69e975f3",
          "transactionHash": "0xd2daa92e32878c8d2baa202d641e39582e0eca15c2250c7741aa70ade4d51cd8",
          "transactionIndex": "0x0",
          "logIndex": "0x0",
          "removed": false
        },
        {
          "address": "0xbb56322416a4e3c1f64eb4ace298cce9fd376d35",
          "topics": [
            "0xdeeca532e75e413fdd750935f0d28d3686b7e2074831c42f70db2ca0dc7b32d0",
            "0x000000000000000000000000ba560d1320983bc9da64d3a14d0e912a4ce549a6"
          ],
          "data": "0x",
          "blockHash": "0x1471c5744fb923dcfb98a5ce26f8488fe47a16414456fc159f7e3c2bfd67fbbf",
          "blockNumber": "0x1cef7d2",
          "blockTimestamp": "0x69e975f3",
          "transactionHash": "0xd2daa92e32878c8d2baa202d641e39582e0eca15c2250c7741aa70ade4d51cd8",
          "transactionIndex": "0x0",
          "logIndex": "0x1",
          "removed": false
        },
        {
          "address": "0xbb56322416a4e3c1f64eb4ace298cce9fd376d35",
          "topics": [
            "0xb2e8eb88b584ae71ef4e854c10847f4d39bd93e52599f147bfb4dcc8de52014d",
            "0x000000000000000000000000db9b1e94b5b69df7e401ddbede43491141047db3"
          ],
          "data": "0x",
          "blockHash": "0x1471c5744fb923dcfb98a5ce26f8488fe47a16414456fc159f7e3c2bfd67fbbf",
          "blockNumber": "0x1cef7d2",
          "blockTimestamp": "0x69e975f3",
          "transactionHash": "0xd2daa92e32878c8d2baa202d641e39582e0eca15c2250c7741aa70ade4d51cd8",
          "transactionIndex": "0x0",
          "logIndex": "0x2",
          "removed": false
        },
        {
          "address": "0xbb56322416a4e3c1f64eb4ace298cce9fd376d35",
          "topics": [
            "0x5a3c783d657606d324917524307587fd272edc5e8b257da020bb6072226b6b2c",
            "0x0000000000000000000000009dda6ef3d919c9bc8885d5560999a3640431e8e6"
          ],
          "data": "0x",
          "blockHash": "0x1471c5744fb923dcfb98a5ce26f8488fe47a16414456fc159f7e3c2bfd67fbbf",
          "blockNumber": "0x1cef7d2",
          "blockTimestamp": "0x69e975f3",
          "transactionHash": "0xd2daa92e32878c8d2baa202d641e39582e0eca15c2250c7741aa70ade4d51cd8",
          "transactionIndex": "0x0",
          "logIndex": "0x3",
          "removed": false
        }
      ],
      "logsBloom": "0x00000000000000000000000000000000000000000000000100800000000000000240000400000000000000000000000000000000000000000811001000000000000000800000000000000000000000000001000000000000000000000000000000000000060000000000000000000800000001000000020000000000000000400020000000000000008000000000000000000000000000000000000000000000000000020100000000000000000000000000000000000000000000000000000000000080000000000000000000020000000000000000000000100000000020000000000000000000000000100000000000000000000000000000000002000000",
      "type": "0x2",
      "transactionHash": "0xd2daa92e32878c8d2baa202d641e39582e0eca15c2250c7741aa70ade4d51cd8",
      "transactionIndex": "0x0",
      "blockHash": "0x1471c5744fb923dcfb98a5ce26f8488fe47a16414456fc159f7e3c2bfd67fbbf",
      "blockNumber": "0x1cef7d2",
      "gasUsed": "0x226ef4",
      "effectiveGasPrice": "0x3a699d8",
      "from": "0xba560d1320983bc9da64d3a14d0e912a4ce549a6",
      "to": "0x4e59b44847b379578588920ca78fbf26c0b4956c",
      "contractAddress": null
    },
    {
      "status": "0x1",
      "cumulativeGasUsed": "0xc1bf",
      "logs": [
        {
          "address": "0xbb56322416a4e3c1f64eb4ace298cce9fd376d35",
          "topics": [
            "0xe4c0229512bf8f95820cb6c77daf50e732d16748510f9339a7ad67f6acc78faa",
            "0x0000000000000000000000008bfeb19507eec4c597538e0444253501166081de",
            "0x0000000000000000000000000000000000000000000000000000000000000001"
          ],
          "data": "0x",
          "blockHash": "0x05213da248c084bcaaa1b0a68cfb2fa59a6001c8a59157f201177f8dce51b580",
          "blockNumber": "0x1cef7d3",
          "blockTimestamp": "0x69e975f7",
          "transactionHash": "0xdcab97aba8be4b9c38e2f6a6650db0eba81b7156c1159216ef8c812c71e4ca1a",
          "transactionIndex": "0x0",
          "logIndex": "0x0",
          "removed": false
        }
      ],
      "logsBloom": "0x00000000000000000000000000000000000000000000000000000000000000000200000000000000000000000000000000000000000000000840000000040000000000000000000000000000000000000000008000040000000000004000000000000000000000000000000000800000000000000000000000000000000000000000000000000000000000000000000000000000000000000000000000000000000000000000000000000000000000000000000000000000000000000000000000000000000000000000000400000000000000000000000000000000000040000000000000000000000000001000000000000000000000000000000002000000",
      "type": "0x2",
      "transactionHash": "0xdcab97aba8be4b9c38e2f6a6650db0eba81b7156c1159216ef8c812c71e4ca1a",
      "transactionIndex": "0x0",
      "blockHash": "0x05213da248c084bcaaa1b0a68cfb2fa59a6001c8a59157f201177f8dce51b580",
      "blockNumber": "0x1cef7d3",
      "gasUsed": "0xc1bf",
      "effectiveGasPrice": "0x3a699d8",
      "from": "0xba560d1320983bc9da64d3a14d0e912a4ce549a6",
      "to": "0xbb56322416a4e3c1f64eb4ace298cce9fd376d35",
      "contractAddress": null
    },
    {
      "status": "0x1",
      "cumulativeGasUsed": "0x73b6d",
      "logs": [
        {
          "address": "0xbb56322416a4e3c1f64eb4ace298cce9fd376d35",
          "topics": [
            "0xb7da178654b6036198c898f864a89bbc594778a33428b2544ca3872d19b92bad",
            "0x0000000000000000000000000000000000000000000000000000000000000000",
            "0x000000000000000000000000176211869ca2b568f2a7d4ee941e073a821ee1ff"
          ],
          "data": "0x0000000000000000000000000000000000000000000000000de0b6b3a76400000000000000000000000000000000000000000000000000000a688906bd8b00000000000000000000000000000000000000000000000000000000000000000001",
          "blockHash": "0x05213da248c084bcaaa1b0a68cfb2fa59a6001c8a59157f201177f8dce51b580",
          "blockNumber": "0x1cef7d3",
          "blockTimestamp": "0x69e975f7",
          "transactionHash": "0xade98eb8110615fb0b74d955c36594e88a801b613c7c1b219714b6aef9245500",
          "transactionIndex": "0x1",
          "logIndex": "0x1",
          "removed": false
        },
        {
          "address": "0xbb56322416a4e3c1f64eb4ace298cce9fd376d35",
          "topics": [
            "0xb7da178654b6036198c898f864a89bbc594778a33428b2544ca3872d19b92bad",
            "0x000000000000000000000000176211869ca2b568f2a7d4ee941e073a821ee1ff",
            "0x0000000000000000000000000000000000000000000000000000000000000000"
          ],
          "data": "0x0000000000000000000000000000000000000000000000000de0b6b3a76400000000000000000000000000000000000000000000000000000a688906bd8b00000000000000000000000000000000000000000000000000000000000000000001",
          "blockHash": "0x05213da248c084bcaaa1b0a68cfb2fa59a6001c8a59157f201177f8dce51b580",
          "blockNumber": "0x1cef7d3",
          "blockTimestamp": "0x69e975f7",
          "transactionHash": "0xade98eb8110615fb0b74d955c36594e88a801b613c7c1b219714b6aef9245500",
          "transactionIndex": "0x1",
          "logIndex": "0x2",
          "removed": false
        },
        {
          "address": "0xbb56322416a4e3c1f64eb4ace298cce9fd376d35",
          "topics": [
            "0xb7da178654b6036198c898f864a89bbc594778a33428b2544ca3872d19b92bad",
            "0x000000000000000000000000a219439258ca9da29e9cc4ce5596924745e12b93",
            "0x000000000000000000000000176211869ca2b568f2a7d4ee941e073a821ee1ff"
          ],
          "data": "0x00000000000000000000000000000000000000000000000006f05b59d3b2000000000000000000000000000000000000000000000000000003782dace9d900000000000000000000000000000000000000000000000000000000000000000001",
          "blockHash": "0x05213da248c084bcaaa1b0a68cfb2fa59a6001c8a59157f201177f8dce51b580",
          "blockNumber": "0x1cef7d3",
          "blockTimestamp": "0x69e975f7",
          "transactionHash": "0xade98eb8110615fb0b74d955c36594e88a801b613c7c1b219714b6aef9245500",
          "transactionIndex": "0x1",
          "logIndex": "0x3",
          "removed": false
        },
        {
          "address": "0xbb56322416a4e3c1f64eb4ace298cce9fd376d35",
          "topics": [
            "0xb7da178654b6036198c898f864a89bbc594778a33428b2544ca3872d19b92bad",
            "0x000000000000000000000000a219439258ca9da29e9cc4ce5596924745e12b93",
            "0x0000000000000000000000000000000000000000000000000000000000000000"
          ],
          "data": "0x0000000000000000000000000000000000000000000000001158e460913d00000000000000000000000000000000000000000000000000000de0b6b3a76400000000000000000000000000000000000000000000000000000000000000000001",
          "blockHash": "0x05213da248c084bcaaa1b0a68cfb2fa59a6001c8a59157f201177f8dce51b580",
          "blockNumber": "0x1cef7d3",
          "blockTimestamp": "0x69e975f7",
          "transactionHash": "0xade98eb8110615fb0b74d955c36594e88a801b613c7c1b219714b6aef9245500",
          "transactionIndex": "0x1",
          "logIndex": "0x4",
          "removed": false
        },
        {
          "address": "0xbb56322416a4e3c1f64eb4ace298cce9fd376d35",
          "topics": [
            "0xb7da178654b6036198c898f864a89bbc594778a33428b2544ca3872d19b92bad",
            "0x0000000000000000000000004af15ec2a0bd43db75dd04e62faa3b8ef36b00d5",
            "0x000000000000000000000000176211869ca2b568f2a7d4ee941e073a821ee1ff"
          ],
          "data": "0x00000000000000000000000000000000000000000000000014d1120d7b1600000000000000000000000000000000000000000000000000000de0b6b3a76400000000000000000000000000000000000000000000000000000000000000000001",
          "blockHash": "0x05213da248c084bcaaa1b0a68cfb2fa59a6001c8a59157f201177f8dce51b580",
          "blockNumber": "0x1cef7d3",
          "blockTimestamp": "0x69e975f7",
          "transactionHash": "0xade98eb8110615fb0b74d955c36594e88a801b613c7c1b219714b6aef9245500",
          "transactionIndex": "0x1",
          "logIndex": "0x5",
          "removed": false
        },
        {
          "address": "0xbb56322416a4e3c1f64eb4ace298cce9fd376d35",
          "topics": [
            "0xb7da178654b6036198c898f864a89bbc594778a33428b2544ca3872d19b92bad",
            "0x0000000000000000000000004af15ec2a0bd43db75dd04e62faa3b8ef36b00d5",
            "0x0000000000000000000000000000000000000000000000000000000000000000"
          ],
          "data": "0x0000000000000000000000000000000000000000000000001bc16d674ec8000000000000000000000000000000000000000000000000000014d1120d7b1600000000000000000000000000000000000000000000000000000000000000000001",
          "blockHash": "0x05213da248c084bcaaa1b0a68cfb2fa59a6001c8a59157f201177f8dce51b580",
          "blockNumber": "0x1cef7d3",
          "blockTimestamp": "0x69e975f7",
          "transactionHash": "0xade98eb8110615fb0b74d955c36594e88a801b613c7c1b219714b6aef9245500",
          "transactionIndex": "0x1",
          "logIndex": "0x6",
          "removed": false
        },
        {
          "address": "0xbb56322416a4e3c1f64eb4ace298cce9fd376d35",
          "topics": [
            "0xb7da178654b6036198c898f864a89bbc594778a33428b2544ca3872d19b92bad",
            "0x0000000000000000000000003aab2285ddcddad8edf438c1bab47e1a9d05a9b4",
            "0x0000000000000000000000000000000000000000000000000000000000000000"
          ],
          "data": "0x0000000000000000000000000000000000000000000000001158e460913d00000000000000000000000000000000000000000000000000000de0b6b3a76400000000000000000000000000000000000000000000000000000000000000000001",
          "blockHash": "0x05213da248c084bcaaa1b0a68cfb2fa59a6001c8a59157f201177f8dce51b580",
          "blockNumber": "0x1cef7d3",
          "blockTimestamp": "0x69e975f7",
          "transactionHash": "0xade98eb8110615fb0b74d955c36594e88a801b613c7c1b219714b6aef9245500",
          "transactionIndex": "0x1",
          "logIndex": "0x7",
          "removed": false
        },
        {
          "address": "0xbb56322416a4e3c1f64eb4ace298cce9fd376d35",
          "topics": [
            "0xb7da178654b6036198c898f864a89bbc594778a33428b2544ca3872d19b92bad",
            "0x0000000000000000000000003aab2285ddcddad8edf438c1bab47e1a9d05a9b4",
            "0x000000000000000000000000176211869ca2b568f2a7d4ee941e073a821ee1ff"
          ],
          "data": "0x0000000000000000000000000000000000000000000000001bc16d674ec8000000000000000000000000000000000000000000000000000014d1120d7b1600000000000000000000000000000000000000000000000000000000000000000001",
          "blockHash": "0x05213da248c084bcaaa1b0a68cfb2fa59a6001c8a59157f201177f8dce51b580",
          "blockNumber": "0x1cef7d3",
          "blockTimestamp": "0x69e975f7",
          "transactionHash": "0xade98eb8110615fb0b74d955c36594e88a801b613c7c1b219714b6aef9245500",
          "transactionIndex": "0x1",
          "logIndex": "0x8",
          "removed": false
        }
      ],
      "logsBloom": "0x00000000000000000002000000000000000000000000000000000000000000000200000000000000080020000000000000000000080000000800000000000000000000000000040000080000000000000000000000000000000000000000000000000000020000000000000000000800800000000000000000000000000000000000000000000200000000000000000000000000000001000000000020000000000000000000000000000000000000000000000000000100000000000000000000000000000000080000000000000000000200000000000000000000000020000000000000000000000000000000000000000002000800000000000002000000",
      "type": "0x2",
      "transactionHash": "0xade98eb8110615fb0b74d955c36594e88a801b613c7c1b219714b6aef9245500",
      "transactionIndex": "0x1",
      "blockHash": "0x05213da248c084bcaaa1b0a68cfb2fa59a6001c8a59157f201177f8dce51b580",
      "blockNumber": "0x1cef7d3",
      "gasUsed": "0x679ae",
      "effectiveGasPrice": "0x3a699d8",
      "from": "0xba560d1320983bc9da64d3a14d0e912a4ce549a6",
      "to": "0xbb56322416a4e3c1f64eb4ace298cce9fd376d35",
      "contractAddress": null
    }
  ],
  "libraries": [],
  "pending": [],
  "returns": {},
  "timestamp": 1776907769831,
  "chain": 59144,
  "commit": "15a8a6a"
}